:100000003FC2000073C7000046C7000019C70000C8
:10001000ECC60000BFC6000092C6000065C6000026
:1000200038C600005EC200005CC200005AC2000078
:1000300058C2000056C2000054C2000052C2000064
:1000400050C200004EC200004CC200004AC2000074
:1000500048C2000046C2000044C20000D0C50000F3
:1000600040C200003EC200003CC200003AC2000094
:1000700038C2000036C2000034C2000032C20000A4
:1000800030C200002EC200002CC200002AC20000B4
:1000900028C2000026C2000024C2000022C20000C4
:1000A00020C200001EC200001CC200001AC20000D4
:1000B00018C2000016C2000014C2000012C20000E4
:1000C00010C200000EC200000CC2000063C7000096
:1000D00038C7000006C2000004C2000002C20000CF
:1000E00000C20000B308B308C708DB08D208E40860
:1000F000ED080F09240947094709BE0CC10CB00CD3
:10010000B40CB80CF80CC50CC90CCF0CD30CD70C24
:10011000DD0CE10CE50CF80CEB0CEF0CF30C08001B
:100120000000BE922449123EABAAAA2ABECDCCCC76
:100130004C3E00000080BEABAAAAAA3E0000000010
:10014000BF000000803F0000000000084178D3BBE2
:100150004387D1133D190E3CC3BD4282AD2B3E688F
:10016000EC8276BED98FE1A93E4C80EFFFBE01C480
:10017000FF7F3F0000000000327C8900EDD96877E6
:10018000000000590000000000000000D69FDCA81D
:100190001817AA90437327F6B968EDF4DED409FE68
:1001A000E61C1C84DDE80B9929274EC400000F03D0
:1001B000000000000099B7333B76941500F37C00F3
:1001C0000026149E988F0000006A31168F8C0596C9
:1001D00000E7B73F3600000000000000AF669ED089
:1001E000385D8A6C20B95422AE7CED044C803874A2
:1001F00086EDCBFA57CBDC19E22E1DDF5506E5CB99
:1002000001C36DA8B52F48837F00679AB2C886DB0B
:10021000D0BC5416131586004E44BD7F9A15159018
:1002200001EA49B51653A78AEAF02FBD34AEE55569
:100230009FBA48000000005C2447620000000000F4
:1002400086CD0000000000000000000000004565B1
:1002500032CA11A20E0000000000CF000000A36906
:100260009723000000000000005A68555F82B851D3
:1002700008CC31AA2C532E00091F0C000E1C0320A1
:100280000000000600000000000000001402191722
:100290001E65161A100E1C201C1C161615060625A7
:1002A00004040202040202030D0C250400001B19C1
:1002B0000000000000441AB9E52A0604000B1200F1
:1002C000002514232103000000162725353335337C
:1002D000001C382A21000000000000001A20201411
:1002E000203E2C405409FE100C242C4016060E0C07
:1002F0006102027123064F2323160DFF0E122B08F5
:10030000160E242B2920F30E5D0064243C1E2A08BF
:10031000040C0F0D060F0E000C03081C2C0309160D
:100320000C122242620830130314181D2D042802F7
:10033000CE071D000000001B2C1619000000000055
:100340002A0E00000000000000000000000008036A
:10035000030607020E0000000000080000002A2823
:100360003FB60000000000000020343506022613CE
:10037000FE241E121233090000000A0B02090C0DA4
:100380000E08070304010000000000000000000048
:10039000000000000000000000000000000000005D
:1003A000000000001211100000000000000000001A
:1003B000000000000000000000000000000000003D
:1003C0002200250028002B002E00310034000201FD
:1003D0000000050108010B01000021002400270096
:1003E0002A002D0030003300010100000401070144
:1003F0000A010505050507050808080802020202AA
:100400000A0A0808040404040101010101010101B0
:100410000303030303030303040707070C0C0C0C7B
:100420000C0C0C0C02020202060606060606060664
:100430000B0B0B0B0B0B0B0B0102102020080810F1
:100440002040102040800201020108040201010244
:10045000040810204080804020100804020180041D
:100460000201804020100804020108040201010278
:100470000408102040800102040810204080030F6F
:1004800011241FBECFEFD1E2DEBFCDBF00E00CBF15
:1004900012E0A0E0B2E0E6E7F7E200E00BBF02C046
:1004A00007900D92AE39B107D9F725E0AEE9B2E079
:1004B00001C01D92A833B207E1F712E0C0E4D2E018
:1004C00000E006C021970109802FFE010E94231140
:1004D000CF33D10780E00807A9F70E94690D0C947B
:1004E000B9138ECD0895CF92DF92EF92FF920F93C2
:1004F0001F93CF93DF936C017A018B01C0E0D0E0B2
:10050000CE15DF0589F0D8016D918D01D601ED91F1
:10051000FC910190F081E02DC6011995892B11F411
:100520007E0102C02196ECCFC701DF91CF911F91D0
:100530000F91FF90EF90DF90CF900895FC01918D87
:10054000828D981761F0828DDF01A80FB11D5D9635
:100550008C91928D9F5F9F77928F90E008958FEF9F
:100560009FEF0895FC01918D828D981731F0828D57
:10057000E80FF11D858D90E008958FEF9FEF0895AE
:10058000FC01918D228D892F90E080589F4F821B16
:1005900091098F77992708958FEC93E0F1DF21E09F
:1005A000892B09F420E0822F0895FC01848DDF015E
:1005B000A80FB11DA356BF4F2C91848D90E00196DA
:1005C0008F739927848FA689B7892C93A089B189C5
:1005D0008C9180648C93938D848D981306C00288CF
:1005E000F389E02D80818F7D80830895EF92FF92C3
:1005F0000F931F93CF93DF93EC0181E0888F9B8D46
:100600008C8D981305C0E889F989808185FD23C008
:10061000F62E0B8D10E00F5F1F4F0F731127E02E8A
:100620008C8DE8120BC00FB607FCFACFE889F98968
:10063000808185FFF5CFCE01B8DFF2CF8B8DFE0133
:10064000E80FF11DE356FF4FF0820B8FEA89FB891B
:100650008081806207C0EE89FF896083E889F9891B
:1006600080818064808381E090E0DF91CF911F9151
:100670000F91FF90EF900895CF93DF93EC01888D59
:100680008823C1F0EA89FB89808185FD05C0A8899E
:10069000B9898C9186FD0EC00FB607FCF5CF80811D
:1006A00085FFF2CFA889B9898C9185FFEDCFCE0166
:1006B0007CDFE8CFDF91CF91089580E090E0892B37
:1006C00041F080E090E0892B21F00E940000811130
:1006D00020C080E090E0892B41F080E090E0892B01
:1006E00021F00E940000811117C080E090E0892B6A
:1006F00019F052DF811113C080E090E0892BA1F046
:1007000080E090E0892B81F00E94000081110AC0F6
:1007100008950E940000DDCF0E940000E6CF0E94F5
:100720000000EACF0C9400000895E9EBF4E080812A
:1007300091810196918380830895EF92FF920F93A8
:100740001F93CF93DF931F92CDB7DEB7DC019C914F
:100750008C918E7F8C938C918D7F8C93892F81705F
:1007600090FF1FC05D962D913C915E97211531053C
:10077000C1F07D0193960D90BC91A02D14960D9122
:100780001C9115971596FC92EE9214978983F901A6
:100790001995D7019396ED91FC9194971583048355
:1007A00089810F90DF91CF911F910F91FF90EF9072
:1007B00008954F925F926F927F928F929F92AF9225
:1007C000BF92CF92DF92EF92FF921F93CF93DF936E
:1007D000EC01888199819D838C8311E08C819D81BE
:1007E000892B09F478C08E819F81009721F0E1DF89
:1007F000811101C010E0D0939F02C0939E028C81B2
:100800009D81FC01208120FF5FC04585568567855D
:100810007089452B462B472B11F48FDF55C00E9462
:10082000310DEC81FD814180528063807480818430
:100830009284A384B484C580D680E780F084DC01F0
:10084000CB0188199909AA09BB098C159D05AE052C
:10085000BF05D0F185859685A785B089181619063C
:100860001A061B065CF485859685A785B0890197D5
:10087000A109B10985879687A787B08B8589968955
:10088000A789B08D0196A11DB11D858B968BA78B75
:10089000B08F85819681A781B085C184D284E3849D
:1008A000F4848C0D9D1DAE1DBF1D81879287A3878B
:1008B000B4874582568267827086018CF28DE02D66
:1008C000309711F0199510E0EC81FD8181A192A182
:1008D0009D838C8383CF812FDF91CF911F91FF90D8
:1008E000EF90DF90CF90BF90AF909F908F907F90D0
:1008F0006F905F904F90089560E082E30C94900CAD
:1009000061E082E30E94900C81E008950E948D13C3
:100910000F931F93FAD60E943D0D0E94310D009156
:10092000B1031091B2032091B3033091B403DC0101
:10093000CB01801B910BA20BB30B89389341A1050E
:10094000B10540F060E084E3EBD761E085E3E8D7F0
:100950001092B0030E94310D0091B5031091B603BF
:100960002091B7033091B803DC01CB01801B910BC0
:10097000A20BB30B813D9740A105B10538F0109251
:10098000B90386EE94E01F910F91D7CE1F910F917E
:100990000895CF92DF92EF92FF920F931F93CF9320
:1009A000DF93CDB7DEB7C051D1400FB6F894DEBFAC
:1009B0000FBECDBF6091B1047091B2048091B304B9
:1009C0009091B4040E94F8116B017C010091BF0466
:1009D0001091C0040E94310D69877A878B879C87AC
:1009E0001E870D87D88ACF861A8A198A1C8A1B8A85
:1009F0008AE090E09E8B8D8B84E190E0988F8F8BC6
:100A00008EE190E09A8F898F88E290E09C8F8B8FA7
:100A10001E8E1D8E18A21F8E1AA219A21CA21BA226
:100A20001EA21DA218A61FA21AA619A61CA61BA6C6
:100A30001EA61DA618AA1FA619AA8FEF8AAB81E4CD
:100A4000888746E76AE2CE01019698D5CE010196E5
:100A50000DD6C05FDE4F0FB6F894DEBF0FBECDBF20
:100A6000DF91CF911F910F91FF90EF90DF90CF908A
:100A70000895CF92DF92EF92FF92F3D7C090BB041C
:100A8000D090BC04E090BD04F090BE04DC01CB012A
:100A90008C199D09AE09BF09883E9340A105B10597
:100AA000D8F02091B9043091BA044EE1429FC001C0
:100AB000439F900D11249093C0048093BF04109223
:100AC000BA041092B904CDD76093BB047093BC04F0
:100AD0008093BD049093BE04C4D7C090B504D09059
:100AE000B604E090B704F090B804DC01CB018C1997
:100AF0009D09AE09BF0984369105A105B10508F429
:100B000079C0C090AD04D090AE04E090AF04F090F6
:100B1000B0048091AC04863308F0865390917B003A
:100B2000282F2870977F922B90937B00877080648A
:100B300080937C0080917A00806480937A00809119
:100B40007A0086FDFCCF809178002091790090E0BA
:100B5000922BBC01990F880B990B0E9426129B01C6
:100B6000AC0160E070E080E894E40E94901120E025
:100B700030E040E85FE30E942B119B01AC01C7010C
:100B8000B6010E94F7120E94B7126B017C0129E5A1
:100B900037E44CEB53E30E94F712A70196010E9441
:100BA000F71223E73FE745E759E30E942C11A7011D
:100BB00096010E94F7122BEE3FEF43E95AE30E94A1
:100BC0002C119B01AC0160E070E080E89FE30E9483
:100BD00090116093B1047093B2048093B304909326
:100BE000B4043FD76093B5047093B6048093B70400
:100BF0009093B804FF90EF90DF90CF9008951F92EC
:100C00000F920FB60F9211242F933F938F939F93C0
:100C1000AF93BF938091BB039091BC03A091BD03A0
:100C2000B091BE033091BA0323E0230F2D3720F497
:100C30000196A11DB11D05C026E8230F0296A11D36
:100C4000B11D2093BA038093BB039093BC03A09380
:100C5000BD03B093BE038091BF039091C003A091E8
:100C6000C103B091C2030196A11DB11D8093BF03C2
:100C70009093C003A093C103B093C203BF91AF91FF
:100C80009F918F913F912F910F900FBE0F901F90CA
:100C900018951F920F920FB60F9211240BB60F9258
:100CA0002F933F934F935F936F937F938F939F9374
:100CB000AF93BF93EF93FF93E0910E02F0910F0279
:100CC0001995FF91EF91BF91AF919F918F917F9176
:100CD0006F915F914F913F912F910F900BBE0F90AD
:100CE0000FBE0F901F9018951F920F920FB60F9284
:100CF00011240BB60F922F933F934F935F936F93F3
:100D00007F938F939F93AF93BF93EF93FF93E09164
:100D10000C02F0910D021995FF91EF91BF91AF91E7
:100D20009F918F917F916F915F914F913F912F9103
:100D30000F900BBE0F900FBE0F901F9018951F9233
:100D40000F920FB60F9211240BB60F922F933F9371
:100D50004F935F936F937F938F939F93AF93BF93C3
:100D6000EF93FF93E0910202F09103021995FF9136
:100D7000EF91BF91AF919F918F917F916F915F9113
:100D80004F913F912F910F900BBE0F900FBE0F9080
:100D90001F9018951F920F920FB60F9211240BB649
:100DA0000F922F933F934F935F936F937F938F9304
:100DB0009F93AF93BF93EF93FF93E0910002F09165
:100DC00001021995FF91EF91BF91AF919F918F9182
:100DD0007F916F915F914F913F912F910F900BBE3B
:100DE0000F900FBE0F901F9018951F920F920FB685
:100DF0000F9211240BB60F922F933F934F935F9353
:100E00006F937F938F939F93AF93BF93EF93FF93D2
:100E1000E0910A02F0910B021995FF91EF91BF91B9
:100E2000AF919F918F917F916F915F914F913F9182
:100E30002F910F900BBE0F900FBE0F901F90189523
:100E40001F920F920FB60F9211240BB60F922F9391
:100E50003F934F935F936F937F938F939F93AF9342
:100E6000BF93EF93FF93E0910802F0910902199567
:100E7000FF91EF91BF91AF919F918F917F916F9172
:100E80005F914F913F912F910F900BBE0F900FBE2E
:100E90000F901F9018951F920F920FB60F9211246A
:100EA0000BB60F922F933F934F935F936F937F9364
:100EB0008F939F93AF93BF93EF93FF93E0910602BD
:100EC000F09107021995FF91EF91BF91AF919F911A
:100ED0008F917F916F915F914F913F912F910F90E3
:100EE0000BBE0F900FBE0F901F9018951F920F9280
:100EF0000FB60F9211240BB60F922F933F934F937F
:100F00005F936F937F938F939F93AF93BF93EF9371
:100F1000FF93E0910402F09105021995FF91EF9182
:100F2000BF91AF919F918F917F916F915F914F9101
:100F30003F912F910F900BBE0F900FBE0F901F90FF
:100F400018951F920F920FB60F9211240BB60F92A5
:100F50002F933F934F935F936F937F938F939F93C1
:100F6000AF93BF93EF93FF938FEC93E01EDBFF9162
:100F7000EF91BF91AF919F918F917F916F915F9111
:100F80004F913F912F910F900BBE0F900FBE0F907E
:100F90001F9018951F920F920FB60F9211240BB647
:100FA0000F922F938F939F93EF93FF93E091DF0323
:100FB000F091E0038081E091E503F091E60382FD8A
:100FC00012C090818091E8038F5F8F772091E903B1
:100FD000821751F0E091E803F0E0E153FC4F958F68
:100FE0008093E80301C08081FF91EF919F918F91E1
:100FF0002F910F900BBE0F900FBE0F901F90189562
:10100000FB012081822790E1899F900111242827EC
:10101000822F90E0582F44279C0163E0220F331F5A
:101020006A95E1F742275327218130E024273527AD
:1010300074E0959587957A95E1F7822793279183B8
:10104000808308950F931F93CF93DF93FC01A3A197
:10105000B4A11097E1F1EC01158A168A178A108E57
:10106000038CF48DE02D309771F1888181FD2BC0C8
:1010700014960D911C9115971596DC93CE931497A9
:101080008881826088831995988180FB90F9988384
:1010900088818D7F8883EBA1FCA115830483E1D433
:1010A00009811A812B813C810D831E832F83388710
:1010B000DC01CB01801B910BA20BB30B89879A87B4
:1010C000AB87BC8704C0888181608883E8CFDF91CB
:1010D000CF911F910F9108954F925F926F927F92DF
:1010E0008F929F92AF92BF92CF92DF92EF92FF9238
:1010F0000F931F93CF93DF93CDB7DEB7C255D14087
:101100000FB6F894DEBF0FBECDBFCC24C394D12C54
:101110008E01085D1E4F5FE3A52EBB24B394AC0E79
:10112000BD1E24E0A20EB11C61E1862E9924939489
:101130008C0E9D1E86E0880E911C8FEC93E0FED9EC
:101140007C01782E1092C3032091C6033091C7030F
:101150002B30310508F0BFC0F9018827EE58FF4F4A
:101160008F4F0C942311EEEFEE12B5C082E090E0A9
:101170009093C7038093C6031092A302E092A20249
:101180008FEF9FEF9093A1028093A002A4C0E09202
:10119000A3021092C80360EA72E08E2D31DF84E072
:1011A00090E038C0E092A40260EA72E08E2D28DF61
:1011B00083E090E02FC0E092A50260EA72E08E2DFD
:1011C0001FDF85E090E026C0E092A60260EA72E0B0
:1011D0008E2D16DF86E090E01DC0F701FF27E8584E
:1011E000FD4FE4918091A3028E1729F0D092C7039E
:1011F000C092C60370C0E092A70260EA72E08E2D32
:10120000FFDE8091A302811103C088E090E002C05C
:1012100087E090E09093C7038093C6035CC0E091A1
:10122000C80381E08E0F8093C803F0E0E855FD4FBE
:10123000E08260EA72E08E2DE3DE9091C803809137
:10124000A302981348C0E1CFE091A702F0E0E8586C
:10125000FE4F849160EA72E0D3DE8091A00290910B
:10126000A1029927970133272817390719F08AE037
:1012700090E002C089E090E09093C7038093C6039A
:10128000E091C803F0E0E855FD4FE08224C02A3029
:10129000310541F04090A102512CC70199278415D6
:1012A000950511F082E001C081E08093C303D092E4
:1012B000C703C092C603E091C803F0E0E755FD4FB5
:1012C000E08280E191E0E0EAF2E0DE011196019037
:1012D0000D920197E1F72091C303213099F4809199
:1012E000A4028093C9038091CB039091CC03009713
:1012F00021F41092CE031092CD0301969093CC036B
:101300008093CB034091A3024C838091C803109239
:10131000C503223069F590E0FC01E755FD4F40819F
:10132000042E000C550B542F4427FC01E855FD4FAB
:101330002081022E000C330BCA01822B932B9A833F
:10134000898381E08093C5031092C303FEEF7F126F
:101350003BC082E090E09093C7038093C603109255
:10136000A3028FEF9FEF9093A1028093A0020DC084
:10137000222359F09E8188859F3F09F0E6C0843181
:1013800009F4A3C030F5882351F18FEC93E0F8D82D
:10139000181619060CF4D1CECE5ADE4F0FB6F894BB
:1013A000DEBF0FBECDBFDF91CF911F910F91FF9098
:1013B000EF90DF90CF90BF90AF909F908F907F90F5
:1013C0006F905F904F900895D092C703C092C6036C
:1013D000DCCF853109F469C08731A9F0D6CF80917F
:1013E000B903811106C081E08093B90386EE94E0D1
:1013F00029DE37D36093B5037093B6038093B703A8
:101400009093B803C2CF80911002813019F48CE21E
:1014100092E0C9D14C81483108F047E197E1F92EBB
:10142000F8012F2D11922A95E9F750E0BE01675F70
:101430007F4FC8010E949113F801DE01AF5EBE4FDD
:1014400001900D92FA94E1F724E1622E22E0722ECF
:10145000E12CF12CB401F301819191913F010E94A3
:101460009A13892BD1F4CF5EDE4F688179818A810E
:101470009B81C151D140BCD7F701E05FFD4F608334
:10148000C7010E94AB138E2DD5D1809110028130FF
:1014900009F07BCF8BE392E056C0FFEFEF1AFF0A13
:1014A00024E0E216F104B1F670CF80E0C3D181E010
:1014B000C1D182E0BFD183E0BDD1809110028130E3
:1014C00009F063CF87E492E03EC0F80111928A955B
:1014D000E9F7453108F044E150E0BE01675F7F4F16
:1014E000C8010E94911384E1F801DE01A15CBE4FA6
:1014F00001900D928A95E1F7C15CDE4F8881998158
:10150000CF53D1408F3FFFEF9F07A9F484E1E82E2E
:1015100082E0F82E712CB501F701819191917F0144
:101520000E949A13892B11F4872D05C07394F4E05F
:101530007F12F1CF01C07ED180911002813009F07D
:1015400024CF8AE592E02FD120CF81111ECF809148
:10155000B003811109C081E08093B00361E084E3AE
:10156000DFD160E085E3DCD17CD26093B10370937E
:10157000B2038093B3039093B40307CF8F929F92EB
:10158000AF92BF92CF92DF92EF92FF920F931F9391
:10159000CF93DF931F921F92CDB7DEB78C01D62E6B
:1015A000C42E8EEFD80112968C93129713966C93DB
:1015B000139783E615968C93159716961C9216979B
:1015C0009091CA0314969C939F5F9093CA038FEFE8
:1015D0009FEF9A8389835801B3E0AB0EB11C780169
:1015E000E8E0EE0EF11CAE14BF0441F0BE016F5FE7
:1015F0007F4FD5018D915D0103DDF5CF89819A8102
:10160000F80191838083570183814701880E911CE3
:10161000B801A814B90429F0D5018D915D01F0DC61
:10162000F7CF8C2DEDDCF8018381F701E80FF11D78
:10163000D8018C91808313968C911397F701E80F52
:10164000F11D11968C9181838D2D90E008960F905D
:101650000F90DF91CF911F910F91FF90EF90DF904E
:10166000CF90BF90AF909F908F900895AF92BF9210
:10167000CF92DF92EF92FF920F931F93CF93DF935E
:10168000CDB7DEB7DA950FB6F894DEBF0FBECDBF8B
:101690005C01DC0113960C9110E07801B6E0EB0ED2
:1016A000F11CBC016E5F7F4FFE0131966F01A701F7
:1016B000CF010E949113F601EE0DFF1DD5019C9103
:1016C00011968C9190838183085F1F4F7601F701FB
:1016D00061917F018FEC93E00E94F602C7018C19A3
:1016E0009D098017910798F3D3950FB6F894DEBF44
:1016F0000FBECDBFDF91CF911F910F91FF90EF9063
:10170000DF90CF90BF90AF900895CF93DF93CDB788
:10171000DEB7C051D1400FB6F894DEBF0FBECDBFCB
:1017200080ED90E0A0E0B0E089879A87AB87BC8726
:1017300082E18D871E8680E18F8784E0888B83E03D
:10174000898B188642E369E0CE01019617DFCE014E
:1017500001968CDFC05FDE4F0FB6F894DEBF0FBE80
:10176000CDBFDF91CF91089590E0FC01E85CFB4F85
:101770002491FC01EE50FC4F8491882399F090E075
:10178000880F991FFC01E852FC4FA591B491FC0110
:10179000E254FC4F859194918FB7F894EC91E22B31
:1017A000EC938FBF0895CF93DF93CDB7DEB7C354CB
:1017B000D1400FB6F894DEBF0FBECDBFFC0186E06E
:1017C000CF5EDE4F8883C151D140309759F482E318
:1017D000E1E1F1E0EC0FFD1F3196DF011D928A95EA
:1017E000E9F70AC092E3A1E1B1E0AC0FBD1F119689
:1017F00001900D929A95E1F783E3FE01EF5EFE4FB3
:10180000DE01199601900D928A95E1F78DEF888798
:1018100043E563E3CE010196B1DECE01019626DFFA
:10182000CD5BDE4F0FB6F894DEBF0FBECDBFDF91AC
:10183000CF910895EF92FF920F931F93CF93DF9371
:10184000CDB7DEB7C952D1400FB6F894DEBF0FBE98
:10185000CDBF082F10E0F801EE0FFF1FEC5EFD4F2B
:10186000E080F180F801E05FFD4F608170E080E092
:1018700090E0EAD5CF5EDE4F688379838A839B83CD
:10188000C151D14084E090E0CB5EDE4F99838883E4
:10189000C551D140C95EDE4F19830883C751D1407D
:1018A00089E0C75DDE4F8883C952D14080E1E114F1
:1018B000F10451F4E1E1F1E0EC0FFD1F3896DF0196
:1018C0001D928A95E9F70AC0F701A1E1B1E0AC0FDA
:1018D000BD1F189601900D928A95E1F789E1FE01EE
:1018E000EF5EFE4FDE01199601900D928A95E1F7A9
:1018F00086E188874CED69E1CE0101963FDECE019D
:101900000196B4DEC75DDE4F0FB6F894DEBF0FBEA2
:10191000CDBFDF91CF911F910F91FF90EF90089570
:10192000362F90E0FC01E858FC4F4491FC01E85C44
:10193000FB4F2491FC01EE50FC4F9491992309F444
:101940006AC0442309F454C050E0FA013197E231EF
:10195000F10508F04DC08827E358FF4F8F4F73C43F
:10196000809180008F7707C0809180008F7D03C0B9
:1019700080918000877F809380003AC084B58F7704
:1019800002C084B58F7D84BD33C08091B0008F7755
:1019900003C08091B0008F7D8093B00029C08091FA
:1019A00090008F7707C0809190008F7D03C0809159
:1019B0009000877F809390001BC08091A0008F775C
:1019C00007C08091A0008F7D03C08091A000877F19
:1019D0008093A0000DC0809120018F7707C0809177
:1019E00020018F7D03C080912001877F809320019B
:1019F000E92FF0E0EE0FFF1FE254FC4FA591B491E8
:101A00008FB7F894EC91311103C020952E2301C0BB
:101A10002E2B2C938FBF08953FB7F8948091BF036E
:101A20009091C003A091C103B091C20326B5A89BB9
:101A300005C02F3F19F00196A11DB11D3FBFBA2F60
:101A4000A92F982F8827820F911DA11DB11DBC01C0
:101A5000CD0142E0660F771F881F991F4A95D1F785
:101A600008952FB7F8946091BB037091BC038091E7
:101A7000BD039091BE032FBF0895CF93DF93CDB7E1
:101A8000DEB7C051D1400FB6F894DEBF0FBECDBF58
:101A9000E8DF19861A861B861C861D861E861F8611
:101AA000188A698B7A8B8B8B9C8B82E0888749E8BC
:101AB0006CE0CE01019662DDCE010196D7DDC05FFC
:101AC000DE4F0FB6F894DEBF0FBECDBFDF91CF91D2
:101AD0000895789484B5826084BD84B5816084BDA6
:101AE00085B5826085BD85B5816085BD80916E00BC
:101AF000816080936E0010928100809181008260ED
:101B00008093810080918100816080938100809129
:101B100080008160809380008091B1008460809318
:101B2000B1008091B00081608093B00080919100FD
:101B300082608093910080919100816080939100F8
:101B4000809190008160809390008091A1008260DC
:101B50008093A1008091A10081608093A100809179
:101B6000A00081608093A000809121018260809319
:101B700021018091210181608093210180912001C8
:101B800081608093200180917A00846080937A0044
:101B900080917A00826080937A0080917A008160DF
:101BA00080937A0080917A00806880937A00109206
:101BB000C10084E3D9DD61E084E3B2DE82E3D4DDF9
:101BC00061E082E3ADDE85E3CFDD61E085E3A8DEA1
:101BD000E091DF03F091E00382E08083E091DB039A
:101BE000F091DC031082E091DD03F091DE0380E1EF
:101BF00080831092E703E091E303F091E40386E031
:101C00008083E091E103F091E20380818061808331
:101C1000E091E103F091E203808188608083E091AC
:101C2000E103F091E203808180688083E091E10329
:101C3000F091E20380818F7D8083EEDE4B015C01B9
:101C400088E8C82E83E1D82EE12CF12CE5DEDC01FA
:101C5000CB0188199909AA09BB09883E9340A105BF
:101C6000B10558F021E0C21AD108E108F10888EE68
:101C7000880E83E0981EA11CB11CC114D104E1049C
:101C8000F10421F700E112E0C0E0D0E0CE015BD525
:101C9000F80181938F012196C430D105B9F71092D4
:101CA000BA041092B9041092C0041092BF04D9DE95
:101CB0006093BB047093BC048093BD049093BE04F6
:101CC00080E090EBAAE1B6E48093AD049093AE047B
:101CD000A093AF04B093B00487E38093AC04C1DE5B
:101CE0006093B5047093B6048093B7049093B804DE
:101CF0001092B1041092B2041092B3041092B40482
:101D000085E993E0909301028093000280916A003C
:101D10008C7F826080936A00EC9A809110028130FF
:101D200019F48CE692E03FDD60E084E3F9DD60E0E9
:101D300082E3F6DD61E085E3F3DD80E395E0109278
:101D400035051092340510923705109236052BE0B8
:101D500035E090932F0580932E0530933105209325
:101D6000300510922B0510922A0546EE54E0909310
:101D70000A058093090530930605209305055093C5
:101D80002D0540932C0521EC34E09093E5048093DD
:101D9000E4045093E1044093E00430930805209359
:101DA00007051092E3041092E20430933305209368
:101DB00032058BE095E046D980ED97E0A0E0B0E0F9
:101DC0008093EB049093EC04A093ED04B093EE04A5
:101DD00048DE6093EF047093F0048093F1049093D5
:101DE000F20481EC94E02ED98FEC93E00E94C002C3
:101DF000181619060CF470D980E395E00E94D903F7
:101E00000E945D03F1CFCF92DF92EF92FF92CF93CA
:101E1000DF931092D2031092D10388EE93E0A0E0FA
:101E2000B0E08093D3039093D403A093D503B093F1
:101E3000D60320E232E03093D0032093CF0325ED88
:101E400030E03093DC032093DB0324ED30E030936B
:101E5000DE032093DD0320ED30E03093E003209398
:101E6000DF0321ED30E03093E2032093E10322ED24
:101E700030E03093E4032093E30326ED30E0309329
:101E8000E6032093E5031092E8031092E903109211
:101E9000EA031092EB031092310510923005109274
:101EA00033051092320510923505109234051092C8
:101EB00037051092360520910B052E7F20930B05D8
:101EC00020910B052D7F20930B0510921405109285
:101ED0001505109216051092170510921005109214
:101EE0001105109212051092130510920C05109214
:101EF0000D0510920E0510920F0510922B051092F1
:101F00002A0510922D0510922C0510922F05109283
:101F10002E05109220051092210510922205109294
:101F2000230580930C0590930D05A0930E05B093A7
:101F30000F0580910C0590910D05A0910E05B091B3
:101F40000F058093100590931105A0931205B0938F
:101F5000130587DD609314057093150580931605AE
:101F600090931705CC24CA94DC2C7601C0921805F6
:101F7000D0921905E0921A05F0921B05C0921C053B
:101F8000D0921D05E0921E05F0921F0588E894E0AE
:101F9000909325058093240510922705109226051D
:101FA0001092290510922805C6EED4E08091E6042F
:101FB0008E7F8093E6048091E6048D7F8093E60413
:101FC0001092EF041092F0041092F1041092F204B7
:101FD0001092EB041092EC041092ED041092EE04B7
:101FE0001092E7041092E8041092E9041092EA04B7
:101FF000109206051092050510920805109207052B
:1020000010920A05109209051092FB041092FC042C
:102010001092FD041092FE0484EF91E0A0E0B0E085
:102020008093E7049093E804A093E904B093EA0452
:102030008091E7049091E804A091E904B091EA044A
:102040008093EB049093EC04A093ED04B093EE0422
:1020500008DD6093EF047093F0048093F104909393
:10206000F204C092F304D092F404E092F504F092EA
:10207000F604C092F704D092F804E092F904F092CA
:10208000FA0489EC94E0909300058093FF0480E8C3
:1020900094E090930205809301058CE794E090937F
:1020A00004058093030580E395E090930A058093EF
:1020B00009058091300590913105892B49F4D09321
:1020C0003105C093300510920605109205050AC02F
:1020D000E0913205F0913305F0930605E093050594
:1020E000D2A3C1A3109208051092070586EE94E0D2
:1020F00090933305809332050E9422088091C10499
:102100008E7F8093C1048091C1048D7F8093C10430
:102110001092CA041092CB041092CC041092CD04F9
:102120001092C6041092C7041092C8041092C904F9
:102130001092C2041092C3041092C4041092C504F9
:102140001092E1041092E0041092E3041092E20471
:102150001092E5041092E4041092D6041092D70471
:102160001092D8041092D90484E190E0A0E0B0E08D
:102170008093C2049093C304A093C404B093C50495
:102180008091C2049091C304A091C404B091C5048D
:102190008093C6049093C704A093C804B093C90465
:1021A00060DC6093CA047093CB048093CC0490935A
:1021B000CD048FEF9FEFDC018093CE049093CF048A
:1021C000A093D004B093D1048093D2049093D3040D
:1021D000A093D404B093D50489E395E09093DB04F5
:1021E0008093DA041092DD041092DC041092DF0474
:1021F0001092DE041092C0041092BF041092B50435
:102200001092B6041092B7041092B80480E090E0E7
:10221000A0E8BFE38093AD049093AE04A093AF0415
:10222000B093B0041092AC041092B1041092B204B6
:102230001092B3041092B404DF91CF91FF90EF900D
:10224000DF90CF900895EE0FFF1F881F8BBF079080
:10225000F691E02D19945058BB27AA270ED048C1FB
:1022600039D130F03ED120F031F49F3F11F41EF40B
:102270002EC10EF4E095E7FB24C1E92F4AD180F38B
:10228000BA17620773078407950718F071F49EF573
:1022900062C10EF4E0950B2EBA2FA02D0B01B901EF
:1022A00090010C01CA01A0011124FF27591B99F0CC
:1022B000593F50F4503E68F11A16F040A22F232FD8
:1022C000342F4427585FF3CF469537952795A79528
:1022D000F0405395C9F77EF41F16BA0B620B730BCF
:1022E000840BBAF09150A1F0FF0FBB1F661F771F40
:1022F000881FC2F70EC0BA0F621F731F841F48F4F5
:10230000879577956795B795F7959E3F08F0B3CF7A
:102310009395880F08F09927EE0F97958795089564
:102320000CD0E6C0DED040F0D5D030F021F45F3FD5
:1023300019F0C7C0511110C1CAC0EBD098F399234E
:10234000C9F35523B1F3951B550BBB27AA27621779
:102350007307840738F09F5F5F4F220F331F441FBE
:10236000AA1FA9F333D00E2E3AF0E0E830D09150F6
:102370005040E695001CCAF729D0FE2F27D0660FE3
:10238000771F881FBB1F261737074807AB07B0E822
:1023900009F0BB0B802DBF01FF2793585F4F2AF038
:1023A0009E3F510568F08DC0D7C05F3FECF3983E6B
:1023B000DCF3869577956795B795F7959F5FC9F795
:1023C000880F911D9695879597F90895E1E0660F1E
:1023D000771F881FBB1F621773078407BA0720F097
:1023E000621B730B840BBA0BEE1F88F7E095089500
:1023F00098D088F09F5790F0B92F9927B751A0F047
:10240000D1F0660F771F881F991F1AF0BA95C9F788
:1024100012C0B13081F09FD0B1E008959CC0672F09
:10242000782F8827B85F39F0B93FCCF38695779538
:102430006795B395D9F73EF4909580957095619521
:102440007F4F8F4F9F4F0895E89409C097FB3EF44C
:1024500090958095709561957F4F8F4F9F4F9923F1
:10246000A9F0F92F96E9BB279395F695879577956F
:102470006795B795F111F8CFFAF4BB0F11F460FF2F
:102480001BC06F5F7F4F8F4F9F4F16C0882311F087
:1024900096E911C0772321F09EE8872F762F05C09B
:1024A000662371F096E8862F70E060E02AF09A9536
:1024B000660F771F881FDAF7880F9695879597F92B
:1024C000089597F99F6780E870E060E008959FEFB6
:1024D00080EC089500240A941616170618060906BB
:1024E000089500240A94121613061406050608958A
:1024F000092E0394000C11F4882352F0BB0F40F412
:10250000BF2B11F460FF04C06F5F7F4F8F4F9F4F51
:10251000089557FD9058440F551F59F05F3F71F0D3
:102520004795880F97FB991F61F09F3F79F087953A
:102530000895121613061406551FF2CF4695F1DFC3
:1025400008C0161617061806991FF1CF8695710553
:10255000610508940895E894BB2766277727CB0187
:1025600097F908950EF0A6C0B2CF6894AACFD9DF2C
:10257000C8F39923D1F3C6F3DF93CF931F930F933F
:10258000FF92C92FDD2788232AF02197660F771F36
:10259000881FDAF720E030E040E85FEB9FE38839FE
:1025A00020F0803E30F021968F7756DEEEE1F1E0AC
:1025B00003C052DEEBE4F1E08BD08B01BE01EC01F5
:1025C000FB2E6F5771097595771F880B990B3EDFAE
:1025D00028E132E741E35FE316D0AF2D9801AE0169
:1025E000FF900F911F91CF91DF9147DE81CF0BD0EC
:1025F0007FCF70DF28F075DF18F0952309F061CFE9
:1026000066CF1124A9CF85DFA0F3959FD1F3950F55
:1026100050E0551F629FF001729FBB27F00DB11D66
:10262000639FAA27F00DB11DAA1F649F6627B00DF6
:10263000A11D661F829F2227B00DA11D621F739FDF
:10264000B00DA11D621F839FA00D611D221F749FED
:102650003327A00D611D231F849F600D211D822F34
:10266000762F6A2F11249F5750408AF0E1F088237B
:102670004AF0EE0FFF1FBB1F661F771F881F915088
:102680005040A9F79E3F510570F01BCF65CF5F3FCB
:10269000ECF3983EDCF3869577956795B795F795BB
:1026A000E7959F5FC1F7FE2B880F911D9695879543
:1026B00097F908959F3F31F0915020F487957795D1
:1026C0006795B795880F911D9695879597F9089509
:1026D000DF93CF931F930F93FF92EF92DF927B01D3
:1026E0008C01689405C0DA2EEF018DDFFE01E894BD
:1026F000A5912591359145915591AEF3EF01BDDD41
:10270000FE019701A801DA9479F7DF90EF90FF902E
:102710000F911F91CF91DF91089581E090E0F8949F
:1027200028C0FB01DC0102C001900D9241505040D5
:10273000D8F70895FB01DC018D91019080190110FB
:10274000D9F3990B0895F999FECF92BD81BDF89AFE
:10275000992780B50895262FF999FECF1FBA92BD0B
:1027600081BD20BD0FB6F894FA9AF99A0FBE019672
:062770000895F894FFCF6C
:1027760072027202720272027202720272027202B3
:1027860001000100780280028A0293020000000024
:10279600F6027302C0029E02B2023C03474F545F28
:1027A600534F4D455F504152414D00504152414DAE
:1027B6005F534156454400474F545F504152414D87
:1027C6005F4C4953545F52455100474F545F504147
:1027D60052414D5F56414C5F524551004D43206971
:1027E60073205245414459004442475F54585400AF
:1027F600464C5F414D4F554E5400464C5F46464150
:0E28060043540054454C454D5F55415254001B
:00000001FF
