:100000005EC2000082C6000055C6000028C600007F
:10001000FBC50000CEC50000A1C5000074C50000EE
:1000200047C500007DC200007BC2000079C200000D
:1000300077C2000075C2000073C2000071C20000E8
:100040006FC200006DC200006BC2000069C20000F8
:1000500067C2000065C2000063C20000DFC4000088
:100060005FC200005DC200005BC2000059C2000018
:1000700057C2000055C2000053C2000051C2000028
:100080004FC200004DC200004BC2000049C2000038
:1000900047C2000045C2000043C2000041C2000048
:1000A0003FC200003DC200003BC2000039C2000058
:1000B00037C2000035C2000033C2000031C2000068
:1000C0002FC200002DC200002BC200000C949B091F
:1000D00047C6000025C2000023C2000021C2000064
:1000E0001FC2000087048A0479047D048104C104CE
:1000F0008E04920498049C04A004A604AA04AE04EE
:10010000C104B404B804BC04C80BC80BDC0BF00B6E
:10011000E70BF90B020C220C370C5A0C5A0C080096
:100120000000BE922449123EABAAAA2ABECDCCCC76
:100130004C3E00000080BEABAAAAAA3E0000000010
:10014000BF000000803F0000000000084178D3BBE2
:100150004387D1133D190E3CC3BD4282AD2B3E688F
:10016000EC8276BED98FE1A93E4C80EFFFBE01C480
:10017000FF7F3F000000000000000A0B02090C0D89
:100180000E0807030401000000000000000000004A
:10019000000000000000000000000000000000005F
:1001A000000000001211100000000000000000001C
:1001B000000000000000000000000000000000003F
:1001C0002200250028002B002E00310034000201FF
:1001D0000000050108010B01000021002400270098
:1001E0002A002D0030003300010100000401070146
:1001F0000A010505050507050808080802020202AC
:100200000A0A0808040404040101010101010101B2
:100210000303030303030303040707070C0C0C0C7D
:100220000C0C0C0C02020202060606060606060666
:100230000B0B0B0B0B0B0B0B0102102020080810F3
:100240002040102040800201020108040201010246
:10025000040810204080804020100804020180041F
:10026000020180402010080402010804020101027A
:1002700004081020408001020408102040805445EA
:100280004C454D5F494E4A4543540054454C454DFD
:100290005F5541525400464C5F4646414354004628
:1002A0004C5F414D4F554E54004442475F545854A3
:1002B00000A9029F0296028B027E02327C8900ED29
:1002C000D96877000000590000000000000000D647
:1002D0009FDCA81817AA90437327F6B968EDF4DEDF
:1002E000D409FEE61C1C84DDE80B9929274EC400C6
:1002F000000F03000000000099B7333B769415000F
:10030000F37C000026149E988F0000006A31168F3F
:100310008C059600E7B73F3600000000000000AFF4
:10032000669ED0385D8A6C20B95422AE7CED044CB8
:1003300080387486EDCBFA57CBDC19E22E1DDF55E1
:1003400006E5CB01C36DA8B52F48837F00679AB23D
:10035000C886DBD0BC5416131586004E44BD7F9A68
:1003600015159001EA49B51653A78AEAF02FBD3456
:10037000AEE5559FBA48000000005C2447620000CB
:1003800000000086CD00000000000000000000001A
:1003900000456532CA11A20E0000000000CF000027
:1003A00000A3699723000000000000005A68555F11
:1003B00082B85108CC31AA2C532E00091F0C000E14
:1003C0001C032000000006000000000000000014D4
:1003D0000219171E65161A100E1C201C1C16161565
:1003E00006062504040202040202030D0C25040083
:1003F000001B190000000000441AB9E52A06040099
:100400000B120000251423210300000016272535B8
:10041000333533001C382A21000000000000001A88
:10042000202014203E2C405409FE100C242C401691
:10043000060E0C6102027123064F2323160DFF0ED8
:10044000122B08160E242B2920F30E5D0064243C89
:100450001E2A08040C0F0D060F0E000C03081C2C9E
:100460000309160C122242620830130314181D2DC2
:10047000042802CE071D000000001B2C16190000E6
:100480000000002A0E000000000000000000000034
:10049000000803030607020E000000000008000029
:1004A000002A283FB6000000000000002034350676
:1004B000022613FE241E121233090000E70D112438
:1004C0001FBECFEFD1E2DEBFCDBF00E00CBF12E018
:1004D000A0E0B2E0E2E4F8E200E00BBF02C0079067
:1004E0000D92AC32B107D9F724E0ACE2B2E001C022
:1004F0001D92AB3DB207E1F712E0CFE5D2E000E09C
:1005000006C021970109802FFE010E948211CE357D
:10051000D10780E00807A9F70E9409100C941F1466
:100520006FCD90E0FC01E85CFD4F2491FC01EE50A2
:10053000FE4F8491882399F090E0880F991FFC0169
:10054000E852FE4FA591B491FC01E254FE4F859113
:1005500094918FB7F894EC91E22BEC938FBF0895B0
:100560000895CF92DF92EF92FF920F931F93CF9354
:10057000DF936C017A018B01C0E0D0E0CE15DF057E
:1005800089F0D8016D918D01D601ED91FC9101901A
:10059000F081E02DC6011995892B11F47E0102C06E
:1005A0002196ECCFC701DF91CF911F910F91FF9062
:1005B000EF90DF90CF9008958DE392E01CD421E07E
:1005C000892B09F420E0822F08950E94EC138F926A
:1005D0009F92AF92BF92CF92DF92EF92FF920F93D2
:1005E0001F93CF93DF931F921F92CDB7DEB78C017D
:1005F000D42EC22E8EEFD80112968C93129713969A
:100600004C93139715966C93159716961C92169704
:100610009091380214969C939F5F909338028FEFCD
:100620009FEF9A8389835801B3E0AB0EB11C780128
:10063000E8E0EE0EF11CAE14BF0441F0BE016F5FA6
:100640007F4FD5018D915D0147D7F5CF89819A8183
:10065000F80191838083570183814701880E911CA3
:10066000B801A814B90429F0D5018D915D0134D7E2
:10067000F7CF8C2D31D7F8018381F701E80FF11DF9
:10068000D8018C91808313968C911397F701E80F12
:10069000F11D11968C9181838D2D90E008960F901D
:1006A0000F90DF91CF911F910F91FF90EF90DF900E
:1006B000CF90BF90AF909F908F900895AF92BF92D0
:1006C000CF92DF92EF92FF920F931F93CF93DF931E
:1006D000CDB7DEB7DA950FB6F894DEBF0FBECDBF4B
:1006E0005C01DC0113960C9110E07801B6E0EB0E92
:1006F000F11CBC016E5F7F4FFE0131966F01A701B7
:10070000CF010E94F013F601EE0DFF1DD5019C9163
:1007100011968C9190838183085F1F4F7601F701BA
:1007200061917F018DE392E05DD6C7018C199D092F
:1007300080179107A0F3D3950FB6F894DEBF0FBED4
:10074000CDBFDF91CF911F910F91FF90EF90DF9080
:10075000CF90BF90AF900895CF93DF93CDB7DEB722
:10076000C051D1400FB6F894DEBF0FBECDBF80EDB3
:1007700090E0A0E0B0E089879A87AB87BC8782E1F0
:100780008D871E8680E18F8784E0888B83E0898B4C
:10079000188622E349E063E6CE01019618DFCE0118
:1007A00001968CDFC05FDE4F0FB6F894DEBF0FBE40
:1007B000CDBFDF91CF9108958F929F92AF92BF925C
:1007C000FF920F931F93CF93DF93CDB7DEB7C9523C
:1007D000D1400FB6F894DEBF0FBECDBFF82E082F64
:1007E00010E0F801E45DFD4F608170E080E090E092
:1007F0000E9483124B015C018F2D5BD6FC01CF5E02
:10080000DE4F88829982AA82BB82C151D14085E0A5
:1008100090E0CB5EDE4F99838883C551D140C95E9D
:10082000DE4F19830883C751D14089E0C75DDE4F91
:100830008883C952D140309759F480E1E1E1F1E079
:10084000EC0FFD1F3896DF011D928A95E9F70AC06B
:1008500090E1A1E1B1E0AC0FBD1F189601900D929F
:100860009A95E1F789E1FE01EF5EFE4FDE011996F0
:1008700001900D928A95E1F786E188872CED49E198
:1008800063E6CE010196A3DECE01019617DFC75DB8
:10089000DE4F0FB6F894DEBF0FBECDBFDF91CF9114
:1008A0001F910F91FF90BF90AF909F908F900895F0
:1008B000362F90E0FC01E858FE4F4491FC01E85CC3
:1008C000FD4F2491FC01EE50FE4F9491992309F4C1
:1008D0006BC0442309F455C050E0FA013197E2316E
:1008E000F10508F04EC08827EE58FF4F8F4F0C944B
:1008F0008211809180008F7707C0809180008F7D6A
:1009000003C080918000877F809380003AC084B5C7
:100910008F7702C084B58F7D84BD33C08091B000D5
:100920008F7703C08091B0008F7D8093B00029C085
:10093000809190008F7707C0809190008F7D03C0D9
:1009400080919000877F809390001BC08091A000D1
:100950008F7707C08091A0008F7D03C08091A00099
:10096000877F8093A0000DC0809120018F7707C002
:10097000809120018F7D03C080912001877F80932B
:100980002001E92FF0E0EE0FFF1FE254FE4FA5918A
:10099000B4918FB7F894EC91311103C020952E23B8
:1009A00001C02E2B2C938FBF08952FB7F894609120
:1009B000590370915A0380915B0390915C032FBFA0
:1009C0000895CF93DF93CDB7DEB7C051D1400FB6B6
:1009D000F894DEBF0FBECDBFE8DF19861A861B86EE
:1009E0001C861D861E861F86188A698B7A8B8B8BC8
:1009F0009C8B82E0888729E84CE063E6CE01019673
:100A0000E6DDCE0101965ADEC05FDE4F0FB6F894E8
:100A1000DEBF0FBECDBFDF91CF9108951F920F9221
:100A20000FB60F9211242F933F938F939F93AF9301
:100A3000BF938091590390915A03A0915B03B091A9
:100A40005C033091580323E0230F2D3720F40196E7
:100A5000A11DB11D05C026E8230F0296A11DB11DE1
:100A6000209358038093590390935A03A0935B03F8
:100A7000B0935C038091540390915503A091560369
:100A8000B09157030196A11DB11D8093540390931B
:100A90005503A0935603B0935703BF91AF919F9115
:100AA0008F913F912F910F900FBE0F901F9018952F
:100AB0001F920F920FB60F9211240BB60F922F9325
:100AC0003F934F935F936F937F938F939F93AF93D6
:100AD000BF93EF93FF93E0910E02F0910F021995EF
:100AE000FF91EF91BF91AF919F918F917F916F9106
:100AF0005F914F913F912F910F900BBE0F900FBEC2
:100B00000F901F9018951F920F920FB60F921124FD
:100B10000BB60F922F933F934F935F936F937F93F7
:100B20008F939F93AF93BF93EF93FF93E0910C024A
:100B3000F0910D021995FF91EF91BF91AF919F91A7
:100B40008F917F916F915F914F913F912F910F9076
:100B50000BBE0F900FBE0F901F9018951F920F9213
:100B60000FB60F9211240BB60F922F933F934F9312
:100B70005F936F937F938F939F93AF93BF93EF9305
:100B8000FF93E0910202F09103021995FF91EF911A
:100B9000BF91AF919F918F917F916F915F914F9195
:100BA0003F912F910F900BBE0F900FBE0F901F9093
:100BB00018951F920F920FB60F9211240BB60F9239
:100BC0002F933F934F935F936F937F938F939F9355
:100BD000AF93BF93EF93FF93E0910002F091010276
:100BE0001995FF91EF91BF91AF919F918F917F9157
:100BF0006F915F914F913F912F910F900BBE0F908E
:100C00000FBE0F901F9018951F920F920FB60F9264
:100C100011240BB60F922F933F934F935F936F93D3
:100C20007F938F939F93AF93BF93EF93FF93E09145
:100C30000A02F0910B021995FF91EF91BF91AF91CC
:100C40009F918F917F916F915F914F913F912F91E4
:100C50000F900BBE0F900FBE0F901F9018951F9214
:100C60000F920FB60F9211240BB60F922F933F9352
:100C70004F935F936F937F938F939F93AF93BF93A4
:100C8000EF93FF93E0910802F09109021995FF910B
:100C9000EF91BF91AF919F918F917F916F915F91F4
:100CA0004F913F912F910F900BBE0F900FBE0F9061
:100CB0001F9018951F920F920FB60F9211240BB62A
:100CC0000F922F933F934F935F936F937F938F93E5
:100CD0009F93AF93BF93EF93FF93E0910602F09140
:100CE00007021995FF91EF91BF91AF919F918F915D
:100CF0007F916F915F914F913F912F910F900BBE1C
:100D00000F900FBE0F901F9018951F920F920FB665
:100D10000F9211240BB60F922F933F934F935F9333
:100D20006F937F938F939F93AF93BF93EF93FF93B3
:100D3000E0910402F09105021995FF91EF91BF91A6
:100D4000AF919F918F917F916F915F914F913F9163
:100D50002F910F900BBE0F900FBE0F901F90189504
:100D60001F920F920FB60F9211240BB60F922F9372
:100D70003F934F935F936F937F938F939F93AF9323
:100D8000BF93EF93FF938DE392E00BD3FF91EF912D
:100D9000BF91AF919F918F917F916F915F914F9193
:100DA0003F912F910F900BBE0F900FBE0F901F9091
:100DB0001895FC01918D828D981761F0828DDF016D
:100DC000A80FB11D5D968C91928D9F5F9F77928F3A
:100DD00090E008958FEF9FEF0895FC01918D828D33
:100DE000981731F0828DE80FF11D858D90E0089500
:100DF0008FEF9FEF0895FC01918D228D892F90E058
:100E000080589F4F821B91098F779927089580E022
:100E100090E0892B41F080E090E0892B21F00E9446
:100E20000000811120C080E090E0892B41F080E03B
:100E300090E0892B21F00E940000811117C080E012
:100E400090E0892B19F0B8DB811113C080E090E0AD
:100E5000892BA1F080E090E0892B81F00E940000B6
:100E600081110AC008950E940000DDCF0E94000099
:100E7000E6CF0E940000EACF0C9400000895E7E25C
:100E8000F3E0808191810196918380830895EF92B0
:100E9000FF920F931F93CF93DF931F92CDB7DEB7CF
:100EA000DC019C918C918E7F8C938C918D7F8C93A7
:100EB000892F817090FF1FC05D962D913C915E97A8
:100EC00021153105C1F07D0193960D90BC91A02DA7
:100ED00014960D911C9115971596FC92EE9214970D
:100EE0008983F9011995D7019396ED91FC91949717
:100EF0001583048389810F90DF91CF911F910F910A
:100F0000FF90EF900895CF92DF92EF92FF920F93B0
:100F10001F93CF93DF93CDB7DEB7C052D2400FB649
:100F2000F894DEBF0FBECDBF60911F037091200308
:100F300080912103909122030E9457126B017C0142
:100F400000912D0310912E0330DDC75EDE4F6883C4
:100F500079838A839B83C951D140C35EDE4F198355
:100F60000883CD51D140C15EDE4FD982C882CF51B6
:100F7000D140CF5DDE4F19821882C152D140CD5D84
:100F8000DE4F19821882C352D1408AE090E0CB5DD7
:100F9000DE4F99838883C552D14084E190E0C95DDA
:100FA000DE4F99838883C752D1408EE190E0C75DC0
:100FB000DE4F99838883C952D14088E290E0C55DB5
:100FC000DE4F99838883CB52D140C35DDE4F1982B7
:100FD0001882CD52D140C15DDE4F19821882CF52A6
:100FE000D140CF5CDE4F19821882C153D140CD5C15
:100FF000DE4F19821882C353D140CB5CDE4F198279
:101000001882C553D140C95CDE4F19821882C7537C
:10101000D140C75CDE4F19821882C953D140C55CEC
:10102000DE4F19821882CB53D140C35CDE4F198248
:101030001882CD53D140C15CDE4F19821882CF5344
:10104000D140CF5BDE4F1882C154D1408FEFCE5BD1
:10105000DE4F8883C254D14081E4C85EDE4F88836E
:10106000C851D14026E74AE263E6CE018F5E9E4F2B
:10107000AEDACE018F5E9E4F21DB8091300281304F
:1010800091F58091DA0480FF2EC080912D0390911C
:101090002E036091D10400911F0310912003209131
:1010A00021033091220309871A872B873C8700E0B0
:1010B00010E020E232E40D871E872F87388B00E096
:1010C00010E028E432E4098B1A8B2B8B3C8B9E8B2F
:1010D0008D8B8CED88872EE04EE0CE01019677DA7D
:1010E000CE010196EBDAC05EDD4F0FB6F894DEBF9D
:1010F0000FBECDBFDF91CF911F910F91FF90EF9069
:10110000DF90CF90089560E082E3D2CB61E082E38C
:10111000CFDB81E008950F931F931EDB52DC45DC8B
:101120000091D2041091D3042091D4043091D504BD
:10113000DC01CB01801B910BA20BB30B89389341CF
:10114000A105B10558F060E084E3B2DB61E085E31E
:10115000AFDB8091DA048E7F8093DA0426DC009185
:10116000D6041091D7042091D8043091D904DC0121
:10117000CB01801B910BA20BB30B813D9740A105C6
:10118000B10550F08091DA048D7F8093DA048FE20C
:1011900093E01F910F917BCE1F910F910895CF92F5
:1011A000DF92EF92FF9201DCC0902903D0902A03D6
:1011B000E0902B03F0902C03DC01CB018C199D09EE
:1011C000AE09BF09883E9340A105B105D8F0209132
:1011D0002703309128034EE1429FC001439F900DA9
:1011E000112490932E0380932D03109228031092C4
:1011F0002703DBDB6093290370932A0380932B037F
:1012000090932C03D2DBC0902303D0902403E09072
:101210002503F0902603DC01CB018C199D09AE0952
:10122000BF0984369105A105B10508F47FC0C090BF
:101230001B03D0901C03E0901D03F0901E038091CF
:101240001A03863308F0865390917B00282F28706C
:10125000977F922B90937B008770806480937C00B3
:1012600080917A00806480937A0080917A0086FD74
:10127000FCCF809178002091790090E0922BBC0106
:10128000990F880B990B0E9485129B01AC0160E0BD
:1012900070E080E894E40E94EF1120E030E040E844
:1012A0005FE30E948A119B01AC01C701B6010E9455
:1012B00056130E9416136B017C0129E537E44CEBB1
:1012C00053E30E945613A70196010E94561323E789
:1012D0003FE745E759E30E948B11A70196010E9461
:1012E00056132BEE3FEF43E95AE30E948B119B010B
:1012F000AC0160E070E080E89FE30E94EF1123E31F
:1013000033E948E853E40E948A1160931F03709305
:101310002003809321039093220347DB60932303F0
:10132000709324038093250390932603FF90EF90FE
:10133000DF90CF9008951F920F920FB60F92112455
:101340000BB60F922F938F939F93EF93FF93E091A0
:101350004D02F0914E028081E0915302F0915402CF
:1013600082FD12C09081809156028F5F8F7720910D
:101370005702821751F0E0915602F0E0E35CFD4F16
:10138000958F8093560201C08081FF91EF919F91CC
:101390008F912F910F900BBE0F900FBE0F901F904B
:1013A0001895FC01848DDF01A80FB11DA356BF4F16
:1013B0002C91848D90E001968F739927848FA68954
:1013C000B7892C93A089B1898C9180648C93938D7B
:1013D000848D981306C00288F389E02D80818F7D6B
:1013E00080830895EF92FF920F931F93CF93DF9323
:1013F000EC0181E0888F9B8D8C8D981305C0E88966
:10140000F989808185FD23C0F62E0B8D10E00F5FDA
:101410001F4F0F731127E02E8C8DE8120BC00FB6F3
:1014200007FCFACFE889F989808185FFF5CFCE01E5
:10143000B8DFF2CF8B8DFE01E80FF11DE356FF4FB1
:10144000F0820B8FEA89FB898081806207C0EE8978
:10145000FF896083E889F98980818064808381E0E5
:1014600090E0DF91CF911F910F91FF90EF90089541
:10147000CF93DF93EC01888D8823C1F0EA89FB8943
:10148000808185FD05C0A889B9898C9186FD0EC033
:101490000FB607FCF5CF808185FFF2CFA889B98907
:1014A0008C9185FFEDCFCE017CDFE8CFDF91CF912E
:1014B000089590E1E1EBF3E0DF011D929A95E9F7E1
:1014C000E82FF0E0EE0FFF1FEF54FD4F6591749190
:1014D00081EB93E00C940214FB012081822790E1C0
:1014E000899F900111242827822F90E0582F4427AC
:1014F0009C0163E0220F331F6A95E1F742275327CF
:10150000218130E02427352774E0959587957A95D9
:10151000E1F7822793279183808308954F925F920A
:101520006F927F928F929F92AF92BF92CF92DF92F3
:10153000EF92FF921F93CF93DF93EC018881998103
:101540009D838C8311E08C819D81892B09F477C068
:101550008E819F81009721F0E1DF811101C010E0B1
:10156000D093B003C093AF038C819D81FC01208197
:1015700020FF5EC04585568567857089452B462BC3
:10158000472B11F484DC54C010DAEC81FD814180DA
:1015900052806380748081849284A384B484C580E3
:1015A000D680E780F084DC01CB0188199909AA096B
:1015B000BB098C159D05AE05BF05D0F185859685C7
:1015C000A785B089181619061A061B065CF48585CE
:1015D0009685A785B0890197A109B1098587968766
:1015E000A787B08B85899689A789B08D0196A11DA3
:1015F000B11D858B968BA78BB08F85819681A78136
:10160000B085C184D284E384F4848C0D9D1DAE1D0D
:10161000BF1D81879287A387B487458256826782E0
:101620007086018CF28DE02D309711F0199510E045
:10163000EC81FD8181A192A19D838C8384CF812F38
:10164000DF91CF911F91FF90EF90DF90CF90BF90EF
:10165000AF909F908F907F906F905F904F90089584
:101660000F931F93CF93DF93FC01A3A1B4A1109715
:10167000E1F1EC01158A168A178A108E038CF48D1D
:10168000E02D309771F1888181FD2BC014960D916A
:101690001C9115971596DC93CE93149788818260E0
:1016A00088831995988180FB90F9988388818D7F34
:1016B0008883EBA1FCA11583048377D909811A8162
:1016C0002B813C810D831E832F833887DC01CB0166
:1016D000801B910BA20BB30B89879A87AB87BC87C2
:1016E00004C0888181608883E8CFDF91CF911F910A
:1016F0000F9108954F925F926F927F928F929F9277
:10170000AF92BF92CF92DF92EF92FF920F931F930F
:10171000CF93DF93CDB7DEB7C559D2400FB6F8945B
:10172000DEBF0FBECDBF31E1A32EBB24B394AC0E00
:10173000BD1E28E0A20EB11C42E8842E42E0942E89
:101740008C0E9D1E84E0880E911C7E01E5E9EE1A48
:10175000EDEFFE0A54E5652E52E0752E6C0E7D1EEF
:10176000F6E06F0E711C8DE392E023DB8C01582EA6
:101770001092310220913402309135022B30310524
:1017800008F0BFC0F9018827EC57FF4F8F4FBAC54B
:101790002EEF0213B6C082E090E090933502809362
:1017A00034021092C4030093C3038FEF9FEF909312
:1017B000C2038093C103A5C00093C40310923602F4
:1017C00061EC73E0802F88DE84E090E036C0009307
:1017D000C50361EC73E0802F7FDE83E090E02DC0D5
:1017E0000093C60361EC73E0802F76DE85E090E025
:1017F00024C00093C70361EC73E0802F6DDE86E0A8
:1018000090E01BC0F801FF27E554FC4FE491809164
:10181000C4038E1719F081E090E00FC00093C80355
:1018200061EC73E0802F58DE8091C403811103C006
:1018300088E090E002C087E090E0909335028093CA
:1018400034025FC0E091360281E08E0F8093360251
:10185000F0E0E753FC4F008361EC73E0802F3CDE47
:10186000909136028091C40398134BC0E1CFE09170
:10187000C803F0E0E554FD4F849161EC73E02CDE89
:101880008091C1039091C2039927980133272817AB
:10189000390719F08AE090E002C089E090E0909367
:1018A000350280933402E0913602F0E0E753FC4FBA
:1018B000008327C02A30310541F0C090C203D12CEB
:1018C000C80199278C159D0511F082E001C081E0C7
:1018D0008093310281E090E090933502809334024E
:1018E000E0913602F0E0E653FC4F008380E191E0A6
:1018F000E1ECF3E0DE01AF5EBE4F01900D92019787
:10190000E1F720913102213099F48091C503809351
:1019100037028091390290913A02009721F4109297
:101920003C0210923B02019690933A028093390256
:101930004091C403CC5EDE4F4883C451D1408091B6
:10194000360210923302223089F590E0FC01E65312
:10195000FC4F4081042E000C550B542F4427FC01F2
:10196000E753FC4F2081022E000C330BCA01822B5F
:10197000932BCF5EDE4F99838883C151D14081E0A4
:1019800080933302109231028EEF581243C082E0EE
:1019900090E090933502809334021092C4038FEF4D
:1019A0009FEF9093C2038093C10315C0222399F047
:1019B000CA5EDE4F9881C651D140C85EDE4F888135
:1019C000C851D1409F3F09F0E4C0843109F4B0C050
:1019D00040F5882361F18DE392E00DDA18161906BF
:1019E0000CF4C1CECB56DD4F0FB6F894DEBF0FBE60
:1019F000CDBFDF91CF911F910F91FF90EF90DF90BE
:101A0000CF90BF90AF909F908F907F906F905F909E
:101A10004F90089581E090E09093350280933402D6
:101A2000DACF853109F47CC08731B1F0D4CF809111
:101A3000DA0481FD06C082608093DA048FE293E0CD
:101A40000FDE0E94D5046093D6047093D704809370
:101A5000D8049093D904BFCFF70111928A95E9F782
:101A6000483108F047E150E0B501C701B9D687E138
:101A7000F701DE01AC5ABD4F01900D928A95E1F756
:101A800010E0812F16DDB301B4D6892B09F043C0D5
:101A9000412E512CCC5ADD4F688179818A819B81FE
:101AA000C455D24004D5F201E45DFD4F6083C2010C
:101AB000B8D6812F0E94DC0380912C02813009F07E
:101AC0008ACF82E3E0E2F2E0A1E2B2E0AC0FBD1F18
:101AD000119601900D928A95E1F786E0CF5DDD4F7A
:101AE0008883C152D24083E3FE01EF5DFD4FDE01EA
:101AF000199601900D928A95E1F78DEF888723E57D
:101B000043E363E6CE0101960E94E702CE0101960F
:101B10000E945E0360CF1F5F153009F0B2CF5BCF2C
:101B200010E0812F0E94DC031F5F1530D1F753CFE7
:101B30008E010F5F1F4FF80111928A95E9F7453129
:101B400008F044E150E0B501C8014AD684E1F8014B
:101B5000DE01AE57BD4F01900D928A95E1F7CE5749
:101B6000DD4F88819981C258D2408F3FFFEF9F0798
:101B700069F410E0812F9DDCB4013BD6892B11F470
:101B8000812F04C01F5F1530A9F725CF0E94DC0309
:101B900022CF811120CF8091DA0480FD0DC0909377
:101BA000D10481608093DA0461E084E30E945804E8
:101BB00060E085E30E9458040E94D5046093D2043B
:101BC0007093D3048093D4049093D50404CFCF9220
:101BD000DF92EF92FF92CF93DF9310924002109228
:101BE0003F0288EE93E0A0E0B0E080934102909342
:101BF0004202A0934302B093440224E132E03093C6
:101C00003E0220933D0225ED30E030934A022093BE
:101C1000490224ED30E030934C0220934B0220ED3A
:101C200030E030934E0220934D0221ED30E03093AE
:101C3000500220934F0222ED30E030935202209365
:101C4000510226ED30E0309354022093530210925B
:101C50005602109257021092580210925902109296
:101C6000A8031092A7031092AA031092A90310923E
:101C7000AC031092AB031092AE031092AD0320910F
:101C800082032E7F20938203209182032D7F209355
:101C9000820310928B0310928C0310928D0310928A
:101CA0008E0310928703109288031092890310927A
:101CB0008A0310928303109284031092850310927A
:101CC00086031092A2031092A1031092A403109213
:101CD000A3031092A6031092A503109297031092EB
:101CE00098031092990310929A0380938303909320
:101CF0008403A0938503B09386038091830390911E
:101D00008403A0918503B091860380938703909309
:101D10008803A0938903B0938A030E94D50460933B
:101D20008B0370938C0380938D0390938E03CC244C
:101D3000CA94DC2C7601C0928F03D0929003E0927B
:101D40009103F0929203C0929303D0929403E09295
:101D50009503F09296038BE898E090939C03809310
:101D60009B0310929E0310929D031092A003109269
:101D70009F03CFE2D3E080912F038E7F80932F03C8
:101D800080912F038D7F80932F0310923803109240
:101D9000390310923A0310923B03109234031092CD
:101DA00035031092360310923703109230031092CD
:101DB0003103109232031092330310924F031092AA
:101DC0004E0310925103109250031092530310923D
:101DD000520310924403109245031092460310924E
:101DE000470384EF91E0A0E0B0E08093300390934C
:101DF0003103A0933203B093330380913003909169
:101E00003103A0913203B091330380933403909354
:101E10003503A0933603B09337030E94D504609333
:101E200038037093390380933A0390933B03C09235
:101E30003C03D0923D03E0923E03F0923F03C092F8
:101E40004003D0924103E0924203F092430383E8BF
:101E500097E0909349038093480386E898E0909335
:101E60004B0380934A0383E898E090934D0380935B
:101E70004C0387EA93E0909353038093520380913D
:101E8000A7039091A803892B49F4D093A803C0938A
:101E9000A70310924F0310924E030AC0E091A903CA
:101EA000F091AA03F0934F03E0934E03D2A3C1A392
:101EB00010925103109250038FE293E09093AA0383
:101EC0008093A903CDDB80915D038E7F80935D03BA
:101ED00080915D038D7F80935D0310926603109265
:101EE00067031092680310926903109262031092C4
:101EF0006303109264031092650310925E031092C4
:101F00005F03109260031092610310927D031092A0
:101F10007C0310927F0310927E0310928103109233
:101F20008003109272031092730310927403109244
:101F3000750384E190E0A0E0B0E080935E039093AD
:101F40005F03A0936003B093610380915E0390915F
:101F50005F03A0916003B09161038093620390934B
:101F60006303A0936403B09365030E94D504609358
:101F700066037093670380936803909369038FEF00
:101F80009FEFDC0180936A0390936B03A0936C0333
:101F9000B0936D0380936E0390936F03A0937003CF
:101FA000B09371038FEC98E090937703809376035E
:101FB000109279031092780310927B0310927A03A7
:101FC00010922E0310922D031092230310922403DB
:101FD000109225031092260380E090E0A0E8BFE372
:101FE00080931B0390931C03A0931D03B0931E03C7
:101FF00010921A0310921F031092200310922103D3
:1020000010922203DF91CF91FF90EF90DF90CF905D
:102010000895789484B5826084BD84B5816084BD60
:1020200085B5826085BD85B5816085BD80916E0076
:10203000816080936E0010928100809181008260A7
:1020400080938100809181008160809381008091E4
:1020500080008160809380008091B10084608093D3
:10206000B1008091B00081608093B00080919100B8
:1020700082608093910080919100816080939100B3
:10208000809190008160809390008091A100826097
:102090008093A1008091A10081608093A100809134
:1020A000A00081608093A0008091210182608093D4
:1020B0002101809121018160809321018091200183
:1020C00081608093200180917A00846080937A00FF
:1020D00080917A00826080937A0080917A0081609A
:1020E00080937A0080917A00806880937A001092C1
:1020F000C10084E30E94910261E084E30E945804DD
:1021000082E30E94910261E082E30E94580485E329
:102110000E94910261E085E30E945804E0914D0223
:10212000F0914E0282E08083E0914902F0914A02F0
:102130001082E0914B02F0914C0280E1808310927A
:102140005502E0915102F091520286E08083E091C5
:102150004F02F0915002808180618083E0914F02B4
:10216000F0915002808188608083E0914F02F0916D
:102170005002808180688083E0914F02F09150028C
:1021800080818F7D80830CE212E0C0E0D0E0CE0140
:1021900040D3F80181938F012196C530D105B9F75D
:1021A000109228031092270310922E0310922D03F1
:1021B0000E94D5046093290370932A0380932B0314
:1021C00090932C0380E090E8ABE3B6E480931B038C
:1021D00090931C03A0931D03B0931E0386E380938A
:1021E0001A030E94D5046093230370932403809301
:1021F00025039093260310921F0310922003109240
:102200002103109222038FE397E0909301028093C1
:10221000000280916A008C7F826080936A00EC9A51
:1022200060E084E30E94580460E082E30E94580466
:1022300061E085E30E94580487EA93E01092AC03C2
:102240001092AB031092AE031092AD0322E833E07C
:102250009093A6038093A5033093A8032093A7032C
:102260001092A2031092A1034FE253E09093530304
:102270008093520330934F0320934E035093A40353
:102280004093A3032DE533E0909381038093800373
:1022900050937D0340937C0330935103209350036C
:1022A00010927F0310927E033093AA032093A90318
:1022B00082E893E0D5D980ED97E0A0E0B0E080938C
:1022C000340390933503A0933603B09337030E94F1
:1022D000D504609338037093390380933A03909345
:1022E0003B038DE593E0BCD98DE392E00E94FB06B1
:1022F000181619060CF4FED987EA93E00FD90E944C
:102300000707F2CFEE0FFF1F881F8BBF0790F691D4
:10231000E02D19945058BB27AA270ED048C139D1B7
:1023200030F03ED120F031F49F3F11F41EF42EC165
:102330000EF4E095E7FB24C1E92F4AD180F3BA17E8
:10234000620773078407950718F071F49EF562C160
:102350000EF4E0950B2EBA2FA02D0B01B9019001C0
:102360000C01CA01A0011124FF27591B99F0593F04
:1023700050F4503E68F11A16F040A22F232F342F4C
:102380004427585FF3CF469537952795A795F0409A
:102390005395C9F77EF41F16BA0B620B730B840BAF
:1023A000BAF09150A1F0FF0FBB1F661F771F881F67
:1023B000C2F70EC0BA0F621F731F841F48F48795BF
:1023C00077956795B795F7959E3F08F0B3CF9395AE
:1023D000880F08F09927EE0F9795879508950CD0F0
:1023E000E6C0DED040F0D5D030F021F45F3F19F0E8
:1023F000C7C0511110C1CAC0EBD098F39923C9F3DB
:102400005523B1F3951B550BBB27AA2762177307FA
:10241000840738F09F5F5F4F220F331F441FAA1FAE
:10242000A9F333D00E2E3AF0E0E830D0915050406E
:10243000E695001CCAF729D0FE2F27D0660F771F1C
:10244000881FBB1F261737074807AB07B0E809F0FE
:10245000BB0B802DBF01FF2793585F4F2AF09E3F93
:10246000510568F08DC0D7C05F3FECF3983EDCF3B8
:10247000869577956795B795F7959F5FC9F7880F0C
:10248000911D9695879597F90895E1E0660F771F5E
:10249000881FBB1F621773078407BA0720F0621BEF
:1024A000730B840BBA0BEE1F88F7E095089598D054
:1024B00088F09F5790F0B92F9927B751A0F0D1F02D
:1024C000660F771F881F991F1AF0BA95C9F712C0B7
:1024D000B13081F09FD0B1E008959CC0672F782F74
:1024E0008827B85F39F0B93FCCF386957795679523
:1024F000B395D9F73EF490958095709561957F4F8F
:102500008F4F9F4F0895E89409C097FB3EF4909534
:102510008095709561957F4F8F4F9F4F9923A9F0BC
:10252000F92F96E9BB279395F6958795779567954B
:10253000B795F111F8CFFAF4BB0F11F460FF1BC08F
:102540006F5F7F4F8F4F9F4F16C0882311F096E922
:1025500011C0772321F09EE8872F762F05C06623D0
:1025600071F096E8862F70E060E02AF09A95660F89
:10257000771F881FDAF7880F9695879597F9089542
:1025800097F99F6780E870E060E008959FEF80EC26
:10259000089500240A9416161706180609060895C9
:1025A00000240A9412161306140605060895092E2F
:1025B0000394000C11F4882352F0BB0F40F4BF2B9E
:1025C00011F460FF04C06F5F7F4F8F4F9F4F0895DE
:1025D00057FD9058440F551F59F05F3F71F04795D4
:1025E000880F97FB991F61F09F3F79F087950895B9
:1025F000121613061406551FF2CF4695F1DF08C0D8
:10260000161617061806991FF1CF869571056105F4
:1026100008940895E894BB2766277727CB0197F99C
:1026200008950EF0A6C0B2CF6894AACFD9DFC8F340
:102630009923D1F3C6F3DF93CF931F930F93FF92A8
:10264000C92FDD2788232AF02197660F771F881F5F
:10265000DAF720E030E040E85FEB9FE3883920F0D4
:10266000803E30F021968F7756DEEEE1F1E003C038
:1026700052DEEBE4F1E08BD08B01BE01EC01FB2ECE
:102680006F5771097595771F880B990B3EDF28E10D
:1026900032E741E35FE316D0AF2D9801AE01FF9022
:1026A0000F911F91CF91DF9147DE81CF0BD07FCF6C
:1026B00070DF28F075DF18F0952309F061CF66CF41
:1026C0001124A9CF85DFA0F3959FD1F3950F50E09A
:1026D000551F629FF001729FBB27F00DB11D639FD4
:1026E000AA27F00DB11DAA1F649F6627B00DA11D7A
:1026F000661F829F2227B00DA11D621F739FB00D20
:10270000A11D621F839FA00D611D221F749F33278F
:10271000A00D611D231F849F600D211D822F762F28
:102720006A2F11249F5750408AF0E1F088234AF025
:10273000EE0FFF1FBB1F661F771F881F9150504071
:10274000A9F79E3F510570F01BCF65CF5F3FECF3BB
:10275000983EDCF3869577956795B795F795E7955D
:102760009F5FC1F7FE2B880F911D9695879597F96E
:1027700008959F3F31F0915020F4879577956795A4
:10278000B795880F911D9695879597F90895DF93D2
:10279000CF931F930F93FF92EF92DF927B018C01F7
:1027A000689405C0DA2EEF018DDFFE01E894A59153
:1027B0002591359145915591AEF3EF01BDDDFE01B7
:1027C0009701A801DA9479F7DF90EF90FF900F91CD
:1027D0001F91CF91DF91089581E090E0F8942FC090
:1027E000FB01DC0102C001900D9241505040D8F72E
:1027F0000895FB01DC018D91019080190110D9F33E
:10280000990B0895FB01DC0105900D920020E1F782
:102810000895F999FECF92BD81BDF89A992780B5A8
:102820000895262FF999FECF1FBA92BD81BD20BD14
:102830000FB6F894FA9AF99A0FBE01960895F89493
:02284000FFCFC8
:10284200B002B002B002B002B002B002B002B002F6
:1028520000000000F209B102FB06D906ED06380AB3
:0C286200504152414D5F53415645440027
:00000001FF
