:100000003FC10000B6C6000089C600005CC6000003
:100010002FC6000002C60000D5C50000A8C500001C
:100020007BC500005EC100005CC100005AC1000039
:1000300058C1000056C1000054C1000052C1000068
:1000400050C100004EC100004CC100004AC1000078
:1000500048C1000046C1000044C1000013C50000B3
:1000600040C100003EC100003CC100003AC1000098
:1000700038C1000036C1000034C1000032C10000A8
:1000800030C100002EC100002CC100002AC10000B8
:1000900028C1000026C1000024C1000022C10000C8
:1000A00020C100001EC100001CC100001AC10000D8
:1000B00018C1000016C1000014C1000012C10000E8
:1000C00010C100000EC100000CC10000A6C6000057
:1000D0007BC6000006C1000004C1000002C1000090
:1000E00000C10000B107B107C507D907D007E20773
:1000F000EB07FF07140837083708B80BBB0BAA0B30
:10010000AE0BB20BF20BBF0BC30BC90BCD0BD10B5C
:10011000D70BDB0BDF0BF20BE50BE90BED0B08004C
:100120000000BE922449123EABAAAA2ABECDCCCC76
:100130004C3E00000080BEABAAAAAA3E0000000010
:10014000BF000000803F0000000000084178D3BBE2
:100150004387D1133D190E3CC3BD4282AD2B3E688F
:10016000EC8276BED98FE1A93E4C80EFFFBE01C480
:10017000FF7F3F000000000000000A0B02090C0D89
:100180000E0807030401000000000000000000004A
:10019000000000000000000000000000000000005F
:1001A000000000001211100000000000000000001C
:1001B000000000000000000000000000000000003F
:1001C0002200250028002B002E00310034000201FF
:1001D0000000050108010B01000021002400270098
:1001E0002A002D0030003300010100000401070146
:1001F0000A010505050507050808080802020202AC
:100200000A0A0808040404040101010101010101B2
:100210000303030303030303040707070C0C0C0C7D
:100220000C0C0C0C02020202060606060606060666
:100230000B0B0B0B0B0B0B0B0102102020080810F3
:100240002040102040800201020108040201010246
:10025000040810204080804020100804020180041F
:10026000020180402010080402010804020101027A
:100270000408102040800102040810204080FF0D77
:1002800011241FBECFEFD1E2DEBFCDBF00E00CBF17
:1002900013E0A0E0B2E0E4E7F3E200E00BBF02C04D
:1002A00007900D92AE39B107D9F726E0AEE9B3E079
:1002B00001C01D92A833B207E1F711E0C0E4D1E01C
:1002C00000E006C021970109802FFE010E94220F45
:1002D000CF33D10780E00807A9F70E94630C0C9484
:1002E000B8118ECE0895CF92DF92EF92FF920F93C6
:1002F0001F93CF93DF936C017A018B01C0E0D0E0B4
:10030000CE15DF0589F0D8016D918D01D601ED91F3
:10031000FC910190F081E02DC6011995892B11F413
:100320007E0102C02196ECCFC701DF91CF911F91D2
:100330000F91FF90EF90DF90CF900895FC01918D89
:10034000828D981761F0828DDF01A80FB11D5D9637
:100350008C91928D9F5F9F77928F90E008958FEFA1
:100360009FEF0895FC01918D828D981731F0828D59
:10037000E80FF11D858D90E008958FEF9FEF0895B0
:10038000FC01918D228D892F90E080589F4F821B18
:1003900091098F77992708958FEC94E0F1DF21E0A0
:1003A000892B09F420E0822F0895FC01848DDF0160
:1003B000A80FB11DA356BF4F2C91848D90E00196DC
:1003C0008F739927848FA689B7892C93A089B189C7
:1003D0008C9180648C93938D848D981306C00288D1
:1003E000F389E02D80818F7D80830895EF92FF92C5
:1003F0000F931F93CF93DF93EC0181E0888F9B8D48
:100400008C8D981305C0E889F989808185FD23C00A
:10041000F62E0B8D10E00F5F1F4F0F731127E02E8C
:100420008C8DE8120BC00FB607FCFACFE889F9896A
:10043000808185FFF5CFCE01B8DFF2CF8B8DFE0135
:10044000E80FF11DE356FF4FF0820B8FEA89FB891D
:100450008081806207C0EE89FF896083E889F9891D
:1004600080818064808381E090E0DF91CF911F9153
:100470000F91FF90EF900895CF93DF93EC01888D5B
:100480008823C1F0EA89FB89808185FD05C0A889A0
:10049000B9898C9186FD0EC00FB607FCF5CF80811F
:1004A00085FFF2CFA889B9898C9185FFEDCFCE0168
:1004B0007CDFE8CFDF91CF91089580E090E0892B39
:1004C00041F080E090E0892B21F00E940000811132
:1004D00020C080E090E0892B41F080E090E0892B03
:1004E00021F00E940000811117C080E090E0892B6C
:1004F00019F052DF811113C080E090E0892BA1F048
:1005000080E090E0892B81F00E94000081110AC0F8
:1005100008950E940000DDCF0E940000E6CF0E94F7
:100520000000EACF0C9400000895E9EBF5E080812B
:1005300091810196918380830895EF92FF920F93AA
:100540001F93CF93DF931F92CDB7DEB7DC019C9151
:100550008C918E7F8C938C918D7F8C93892F817061
:1005600090FF1FC05D962D913C915E97211531053E
:10057000C1F07D0193960D90BC91A02D14960D9124
:100580001C9115971596FC92EE9214978983F901A8
:100590001995D7019396ED91FC9194971583048357
:1005A00089810F90DF91CF911F910F91FF90EF9074
:1005B00008954F925F926F927F928F929F92AF9227
:1005C000BF92CF92DF92EF92FF921F93CF93DF9370
:1005D000EC01888199819D838C8311E08C819D81C0
:1005E000892B09F478C08E819F81009721F0E1DF8B
:1005F000811101C010E0D0939F03C0939E038C81B2
:100600009D81FC01208120FF5FC04585568567855F
:100610007089452B462B472B11F48FDF55C00E9464
:100620002B0CEC81FD814180528063807480818439
:100630009284A384B484C580D680E780F084DC01F2
:10064000CB0188199909AA09BB098C159D05AE052E
:10065000BF05D0F185859685A785B089181619063E
:100660001A061B065CF485859685A785B0890197D7
:10067000A109B10985879687A787B08B8589968957
:10068000A789B08D0196A11DB11D858B968BA78B77
:10069000B08F85819681A781B085C184D284E3849F
:1006A000F4848C0D9D1DAE1DBF1D81879287A3878D
:1006B000B4874582568267827086018CF28DE02D68
:1006C000309711F0199510E0EC81FD8181A192A184
:1006D0009D838C8383CF812FDF91CF911F91FF90DA
:1006E000EF90DF90CF90BF90AF909F908F907F90D2
:1006F0006F905F904F9008950F931F93CF93DF9368
:10070000FC01A3A1B4A11097E9F1EC01158A168AA6
:10071000178A108E038CF48DE02D309779F1888143
:1007200081FD2CC014960D911C9115971596DC93A4
:10073000CE9314978881826088831995988180FB75
:1007400090F9988388818D7F8883EBA1FCA1158324
:1007500004830E942B0C09811A812B813C810D831B
:100760001E832F833887DC01CB01801B910BA20BEA
:10077000B30B89879A87AB87BC8704C08881816067
:100780008883E7CFDF91CF911F910F9108950E9449
:100790008C110F931F93B3D60E94370C0E942B0C21
:1007A0000091B1041091B2042091B3043091B404CB
:1007B000DC01CB01801B910BA20BB30B8938934159
:1007C000A105B10540F060E084E3A4D761E085E3D2
:1007D000A1D71092B9040E942B0C0091B50410917E
:1007E000B6042091B7043091B804DC01CB01801B22
:1007F000910BA20BB30B813D9740A105B10550F0C1
:1008000060E082E387D71092B0048EEE95E01F91EE
:100810000F9193CE1F910F910895CF92DF92EF9297
:10082000FF920F931F93CF93DF93CDB7DEB7C051E5
:10083000D1400FB6F894DEBF0FBECDBF6091B105B9
:100840007091B2058091B3059091B4050E94F70FA5
:100850006B017C010091BF051091C005FCD7698731
:100860007A878B879C871E870D87D88ACF861A8ABE
:10087000198A1C8A1B8A8AE090E09E8B8D8B84E10A
:1008800090E0988F8F8B8EE190E09A8F898F88E22D
:1008900090E09C8F8B8F1E8E1D8E18A21F8E1AA229
:1008A00019A21CA21BA21EA21DA218A61FA21AA654
:1008B00019A61CA61BA61EA61DA618AA1FA619AA25
:1008C0008FEF8AAB81E4888746E76AE2CE01019622
:1008D00050D5CE010196C5D5C05FDE4F0FB6F89456
:1008E000DEBF0FBECDBFDF91CF911F910F91FF9063
:1008F000EF90DF90CF900895CF92DF92EF92FF922A
:10090000AAD7C090BB05D090BC05E090BD05F09083
:10091000BE05DC01CB018C199D09AE09BF09883EDB
:100920009340A105B105D8F02091B9053091BA05E1
:100930004EE1429FC001439F900D11249093C0054A
:100940008093BF051092BA051092B90584D76093C1
:10095000BB057093BC058093BD059093BE057BD706
:10096000C090B505D090B605E090B705F090B805F9
:10097000DC01CB018C199D09AE09BF0984369105B4
:10098000A105B10508F479C0C090AD05D090AE05C1
:10099000E090AF05F090B0058091AC05863308F08B
:1009A000865390917B00282F2870977F922B9093ED
:1009B0007B008770806480937C0080917A008064E3
:1009C00080937A0080917A0086FDFCCF8091780038
:1009D0002091790090E0922BBC01990F880B990B24
:1009E0000E9425109B01AC0160E070E080E894E477
:1009F0000E948F0F20E030E040E85FE30E942A0F62
:100A00009B01AC01C701B6010E94F6100E94B6100E
:100A10006B017C0129E537E44CEB53E30E94F610AF
:100A2000A70196010E94F61023E73FE745E759E347
:100A30000E942B0FA70196010E94F6102BEE3FEFAC
:100A400043E95AE30E942B0F9B01AC0160E070E088
:100A500080E89FE30E948F0F6093B1057093B20509
:100A60008093B3059093B405F6D66093B505709363
:100A7000B6058093B7059093B805FF90EF90DF908F
:100A8000CF9008951F920F920FB60F9211242F93BB
:100A90003F938F939F93AF93BF938091BB049091AB
:100AA000BC04A091BD04B091BE043091BA0423E00F
:100AB000230F2D3720F40196A11DB11D05C026E896
:100AC000230F0296A11DB11D2093BA048093BB048D
:100AD0009093BC04A093BD04B093BE048091BF0466
:100AE0009091C004A091C104B091C2040196A11DCF
:100AF000B11D8093BF049093C004A093C104B09330
:100B0000C204BF91AF919F918F913F912F910F9010
:100B10000FBE0F901F9018951F920F920FB60F9255
:100B200011240BB60F922F933F934F935F936F93C4
:100B30007F938F939F93AF93BF93EF93FF93E09136
:100B40000E02F0910F021995FF91EF91BF91AF91B5
:100B50009F918F917F916F915F914F913F912F91D5
:100B60000F900BBE0F900FBE0F901F9018951F9205
:100B70000F920FB60F9211240BB60F922F933F9343
:100B80004F935F936F937F938F939F93AF93BF9395
:100B9000EF93FF93E0910C02F0910D021995FF91F4
:100BA000EF91BF91AF919F918F917F916F915F91E5
:100BB0004F913F912F910F900BBE0F900FBE0F9052
:100BC0001F9018951F920F920FB60F9211240BB61B
:100BD0000F922F933F934F935F936F937F938F93D6
:100BE0009F93AF93BF93EF93FF93E0910202F09135
:100BF00003021995FF91EF91BF91AF919F918F9152
:100C00007F916F915F914F913F912F910F900BBE0C
:100C10000F900FBE0F901F9018951F920F920FB656
:100C20000F9211240BB60F922F933F934F935F9324
:100C30006F937F938F939F93AF93BF93EF93FF93A4
:100C4000E0910002F09101021995FF91EF91BF919F
:100C5000AF919F918F917F916F915F914F913F9154
:100C60002F910F900BBE0F900FBE0F901F901895F5
:100C70001F920F920FB60F9211240BB60F922F9363
:100C80003F934F935F936F937F938F939F93AF9314
:100C9000BF93EF93FF93E0910A02F0910B02199535
:100CA000FF91EF91BF91AF919F918F917F916F9144
:100CB0005F914F913F912F910F900BBE0F900FBE00
:100CC0000F901F9018951F920F920FB60F9211243C
:100CD0000BB60F922F933F934F935F936F937F9336
:100CE0008F939F93AF93BF93EF93FF93E09108028D
:100CF000F09109021995FF91EF91BF91AF919F91EA
:100D00008F917F916F915F914F913F912F910F90B4
:100D10000BBE0F900FBE0F901F9018951F920F9251
:100D20000FB60F9211240BB60F922F933F934F9350
:100D30005F936F937F938F939F93AF93BF93EF9343
:100D4000FF93E0910602F09107021995FF91EF9150
:100D5000BF91AF919F918F917F916F915F914F91D3
:100D60003F912F910F900BBE0F900FBE0F901F90D1
:100D700018951F920F920FB60F9211240BB60F9277
:100D80002F933F934F935F936F937F938F939F9393
:100D9000AF93BF93EF93FF93E0910402F0910502AC
:100DA0001995FF91EF91BF91AF919F918F917F9195
:100DB0006F915F914F913F912F910F900BBE0F90CC
:100DC0000FBE0F901F9018951F920F920FB60F92A3
:100DD00011240BB60F922F933F934F935F936F9312
:100DE0007F938F939F93AF93BF93EF93FF938FEC7A
:100DF00094E0DBDAFF91EF91BF91AF919F918F91DA
:100E00007F916F915F914F913F912F910F900BBE0A
:100E10000F900FBE0F901F9018951F920F920FB654
:100E20000F9211240BB60F922F938F939F93EF93F2
:100E3000FF93E091DF04F091E0048081E091E5040C
:100E4000F091E60482FD12C090818091E8048F5FEA
:100E50008F772091E904821751F0E091E804F0E0E7
:100E6000E153FB4F958F8093E80401C08081FF918F
:100E7000EF919F918F912F910F900BBE0F900FBE0E
:100E80000F901F901895FB012081822790E1899F88
:100E9000900111242827822F90E0582F44279C018D
:100EA00063E0220F331F6A95E1F742275327218120
:100EB00030E02427352774E0959587957A95E1F7FA
:100EC000822793279183808308952F923F924F9298
:100ED0005F926F927F928F929F92AF92BF92CF92CA
:100EE000DF92EF92FF920F931F93CF93DF93CDB7D3
:100EF000DEB7C255D1400FB6F894DEBF0FBECDBFEE
:100F0000CC24C394D12CE0E14E2E552453948E0171
:100F1000085D1E4FFFE3AF2EBB24B394AC0EBD1E85
:100F200024E0A20EB11CA1E18A2E992493948C0E88
:100F30009D1E86E0880E911C8FEC94E0FFD97C0109
:100F4000782E1092C3042091C6043091C7042B3030
:100F5000310508F0AFC0F9018827EE58FF4F8F4FD9
:100F600071C7EEEFEE12A6C082E090E09093C70446
:100F70008093C6041092A303E092A2038FEF9FEF29
:100F80009093A1038093A00395C0E092A3031092D5
:100F9000C80460EA73E08E2D76DF84E090E02AC01A
:100FA000E092A40360EA73E08E2D6DDF83E090E0B1
:100FB00021C0E092A50360EA73E08E2D64DF85E036
:100FC00090E018C0E092A60360EA73E08E2D5BDF2C
:100FD00086E090E00FC0E092A70360EA73E08E2DF8
:100FE00052DF8091A303811103C088E090E002C02A
:100FF00087E090E09093C7048093C6045BC0E091C3
:10100000C80481E08E0F8093C804F0E0E855FC4FDF
:10101000E08260EA73E08E2D36DF9091C804809103
:10102000A303981347C0E1CFE091A703F0E0EC5E83
:10103000FD4F60EA73E0808126DF8091A0039091EC
:10104000A1039927970133272817390719F08AE058
:1010500090E002C089E090E09093C7048093C604BA
:10106000E091C804F0E0E855FC4FE08223C02A304C
:10107000310541F02090A103312CC7019927821539
:10108000930511F082E001C081E08093C304D09207
:10109000C704C092C604E091C804F0E0E755FC4FD5
:1010A000E082E0EAF3E0DE011196C20101900D92C8
:1010B0000197E1F72091C304213099F48091A403B2
:1010C0008093C9048091CB049091CC04009721F4C3
:1010D0001092CE041092CD0401969093CC0480938C
:1010E000CB048091A3038C838091C8041092C50423
:1010F000223069F590E0FC01E755FC4F4081042E59
:10110000000C550B542F4427FC01E855FC4F20815F
:10111000022E000C330BCA01822B932B9A838983F6
:1011200081E08093C5041092C304FEEF7F1239C0A2
:1011300082E090E09093C7048093C6041092A303CA
:101140008FEF9FEF9093A1038093A00309C0222308
:1011500039F08E818F3F51F58E818F3F09F440C069
:101160008FEC94E00DD9181619060CF4E5CECE5A82
:10117000DE4F0FB6F894DEBF0FBECDBFDF91CF912B
:101180001F910F91FF90EF90DF90CF90BF90AF90A5
:101190009F908F907F906F905F904F903F902F9097
:1011A0000895D092C704C092C604DACF8885811111
:1011B000D3CF8091B904811109C081E08093B90433
:1011C00061E084E3A7D260E085E3A4D244D36093D6
:1011D000B1047093B2048093B3049093B404BCCF71
:1011E0008885843109F483C018F4882339F0B8CF96
:1011F000853109F46CC08731C1F0B2CF8091B00461
:10120000811109C081E08093B0048EEE95E074DA1C
:1012100061E082E37FD21FD36093B5047093B6047C
:101220008093B7049093B8049BCF809110028130D3
:1012300019F48CE293E0B1D14C81483108F047E1D8
:1012400027E1F22EF8012F2D11922A95E9F750E0AF
:10125000BE01675F7F4FC8010E949011F801DE0157
:10126000AF5EBE4F01900D92FA94E1F734E1632E28
:1012700033E0732EE12CF12CB401F30181919191B3
:101280003F010E949911892BD1F4CF5EDE4F688116
:1012900079818A819B81C151D140A9D6F701E05F54
:1012A000FD4F6083C7010E94AA118E2DBDD1809190
:1012B0001002813009F054CF8BE393E058C0FFEF68
:1012C000EF1AFF0A24E0E216F104B1F649CF80E0FC
:1012D000ABD181E0A9D182E0A7D183E0A5D18091F3
:1012E0001002813009F03CCF87E493E040C04C818C
:1012F000453108F044E194E1F92EF8012F2D1192C7
:101300002A95E9F750E0BE01675F7F4FC8010E9450
:101310009011F801DE01A15CBE4F01900D92FA948C
:10132000E1F7C15CDE4F88819981CF53D1408F3F77
:10133000EFEF9E07A1F484E1E82E83E0F82E712CF4
:10134000B501F701819191917F01F3D7892B11F4B8
:10135000872D05C07394F4E07F12F2CF01C064D1F1
:1013600080911002813009F0FBCE8AE593E015D11F
:10137000F7CE8F929F92AF92BF92CF92DF92EF9271
:10138000FF920F931F93CF93DF931F921F92CDB7BE
:10139000DEB78C01D62EC42E8EEFD80112968C9318
:1013A000129713966C93139783E615968C93159763
:1013B00016961C9216979091CA0414969C939F5F60
:1013C0009093CA048FEF9FEF9A8389835801B3E00B
:1013D000AB0EB11C7801E8E0EE0EF11CAE14BF04B8
:1013E00041F0BE016F5F7F4FD5018D915D014BDDF7
:1013F000F5CF89819A81F801918380835701838198
:101400004701880E911CB801A814B90429F0D50130
:101410008D915D0138DDF7CF8C2D35DDF8018381AD
:10142000F701E80FF11DD8018C91808313968C9100
:101430001397F701E80FF11D11968C9181838D2D83
:1014400090E008960F900F90DF91CF911F910F9130
:10145000FF90EF90DF90CF90BF90AF909F908F90D4
:101460000895AF92BF92CF92DF92EF92FF920F93C7
:101470001F93CF93DF93CDB7DEB7DA950FB6F8940D
:10148000DEBF0FBECDBF5C01DC0113960C9110E0F6
:101490007801B6E0EB0EF11CBC016E5F7F4FFE01E0
:1014A00031966F01A701CF013BD7F601EE0DFF1D6D
:1014B000D5019C9111968C9190838183085F1F4F79
:1014C0007601F70161917F018FEC94E00E94F601B3
:1014D000C7018C199D098017910798F3D3950FB612
:1014E000F894DEBF0FBECDBFDF91CF911F910F915A
:1014F000FF90EF90DF90CF90BF90AF900895CF9383
:10150000DF93CDB7DEB7C051D1400FB6F894DEBF40
:101510000FBECDBF80ED90E0A0E0B0E089879A8754
:10152000AB87BC8782E18D871E8680E18F8784E050
:10153000888B83E0898B188642E369E0CE010196AF
:1015400018DFCE0101968DDFC05FDE4F0FB6F89435
:10155000DEBF0FBECDBFDF91CF91089590E0FC01BB
:10156000E85CFD4F2491FC01EE50FE4F84918823EE
:1015700099F090E0880F991FFC01E852FE4FA59169
:10158000B491FC01E254FE4F859194918FB7F89489
:10159000EC91E22BEC938FBF0895CF93DF93CDB7FF
:1015A000DEB7C354D1400FB6F894DEBF0FBECDBF37
:1015B000FC0186E0CF5EDE4F8883C151D140309779
:1015C00059F482E3E1E1F1E0EC0FFD1F3196DF0118
:1015D0001D928A95E9F70AC092E3A1E1B1E0AC0F50
:1015E000BD1F119601900D929A95E1F783E3FE01DC
:1015F000EF5EFE4FDE01199601900D928A95E1F79C
:101600008DEF888743E563E3CE010196B2DECE011C
:10161000019627DFCD5BDE4F0FB6F894DEBF0FBE1D
:10162000CDBFDF91CF910895EF92FF920F931F935B
:10163000CF93DF93CDB7DEB7C952D1400FB6F89440
:10164000DEBF0FBECDBF082F10E0F801EE0FFF1F69
:10165000EC5EFC4FE080F180F801E05FFD4F6081BF
:1016600070E080E090E0EFD4CF5EDE4F6883798356
:101670008A839B83C151D14084E090E0CB5EDE4FF2
:1016800099838883C551D140C95EDE4F1983088391
:10169000C751D14089E0C75DDE4F8883C952D14030
:1016A00080E1E114F10451F4E1E1F1E0EC0FFD1F00
:1016B0003896DF011D928A95E9F70AC0F701A1E18A
:1016C000B1E0AC0FBD1F189601900D928A95E1F71D
:1016D00089E1FE01EF5EFE4FDE01199601900D9249
:1016E0008A95E1F786E188874CED69E1CE010196A4
:1016F00040DECE010196B5DEC75DDE4F0FB6F89431
:10170000DEBF0FBECDBFDF91CF911F910F91FF9034
:10171000EF900895362F90E0FC01E858FE4F449179
:10172000FC01E85CFD4F2491FC01EE50FE4F9491CA
:10173000992309F46AC0442309F454C050E0FA0123
:101740003197E231F10508F04DC08827E358FF4F8B
:101750008F4F78C3809180008F7707C08091800081
:101760008F7D03C080918000877F809380003AC086
:1017700084B58F7702C084B58F7D84BD33C08091DE
:10178000B0008F7703C08091B0008F7D8093B00050
:1017900029C0809190008F7707C0809190008F7D45
:1017A00003C080919000877F809390001BC0809140
:1017B000A0008F7707C08091A0008F7D03C080912B
:1017C000A000877F8093A0000DC0809120018F77BB
:1017D00007C0809120018F7D03C080912001877F09
:1017E00080932001E92FF0E0EE0FFF1FE254FE4F3F
:1017F000A591B4918FB7F894EC91311103C0209565
:101800002E2301C02E2B2C938FBF08953FB7F89441
:101810008091BF049091C004A091C104B091C20412
:1018200026B5A89B05C02F3F19F00196A11DB11D3B
:101830003FBFBA2FA92F982F8827820F911DA11D76
:10184000B11DBC01CD0142E0660F771F881F991FB3
:101850004A95D1F708952FB7F8946091BB04709121
:10186000BC048091BD049091BE042FBF0895CF9316
:10187000DF93CDB7DEB7C051D1400FB6F894DEBFCD
:101880000FBECDBFE8DF19861A861B861C861D8613
:101890001E861F86188A698B7A8B8B8B9C8B82E0C5
:1018A000888749E86CE0CE01019663DDCE010196A0
:1018B000D8DDC05FDE4F0FB6F894DEBF0FBECDBFE0
:1018C000DF91CF910895789484B5826084BD84B50A
:1018D000816084BD85B5826085BD85B5816085BD2B
:1018E00080916E00816080936E00109281008091E3
:1018F000810082608093810080918100816080936B
:101900008100809180008160809380008091B1008F
:1019100084608093B1008091B00081608093B000BA
:10192000809191008260809391008091910081600C
:1019300080939100809190008160809390008091CD
:10194000A10082608093A1008091A10081608093BA
:10195000A1008091A00081608093A000809121016E
:101960008260809321018091210181608093210117
:101970008091200181608093200180917A008460B1
:1019800080937A0080917A00826080937A008091BF
:101990007A00816080937A0080917A0080688093D9
:1019A0007A001092C10084E3D9DD61E084E3B2DE05
:1019B00082E3D4DD61E082E3ADDE85E3CFDD61E08B
:1019C00085E3A8DEE091DF04F091E00482E080830B
:1019D000E091DB04F091DC041082E091DD04F091F1
:1019E000DE0480E180831092E704E091E304F0914B
:1019F000E40486E08083E091E104F091E2048081D8
:101A000080618083E091E104F091E204808188604C
:101A10008083E091E104F091E2048081806880831A
:101A2000E091E104F091E20480818F7D8083EEDE1D
:101A30004B015C0188E8C82E83E1D82EE12CF12C03
:101A4000E5DEDC01CB0188199909AA09BB09883EAA
:101A50009340A105B10558F021E0C21AD108E10870
:101A6000F10888EE880E83E0981EA11CB11CC114F9
:101A7000D104E104F10421F700E112E0C0E0D0E07C
:101A8000CE0160D4F80181938F012196C430D10535
:101A9000B9F71092BA051092B9051092C0051092CC
:101AA000BF05D9DE6093BB057093BC058093BD056F
:101AB0009093BE0580E090EBAAE1B6E48093AD057B
:101AC0009093AE05A093AF05B093B00587E38093E4
:101AD000AC05C1DE6093B5057093B6058093B7057C
:101AE0009093B8051092B1051092B2051092B3050B
:101AF0001092B40585E992E0909301028093000270
:101B000080916A008C7F826080936A00EC9A809159
:101B10001002813019F48CE693E03FDD60E084E34D
:101B2000F9DD60E082E3F6DD61E085E3F3DD81EC81
:101B300095E01092C6051092C5051092C805109246
:101B4000C70523E136E0909337068093360630933D
:101B5000C2052093C10510923306109232064EEE54
:101B600055E0909312068093110630930E06209351
:101B70000D06509335064093340629EC35E09093DA
:101B8000ED058093EC055093E9054093E80530930B
:101B9000100620930F061092EB051092EA05309381
:101BA000C4052093C30583E196E00E947C0380ED89
:101BB00097E0A0E0B0E08093F3059093F405A09344
:101BC000F505B093F60547DE6093F7057093F805C9
:101BD0008093F9059093FA0589EC95E00E947C03C7
:101BE0008FEC94E00E94C001181619060CF46DD910
:101BF00081EC95E00E94D9020E945D02F1CFCF9264
:101C0000DF92EF92FF92CF93DF93EFECF4E0138239
:101C1000128288EE93E0A0E0B0E084839583A683EF
:101C2000B78320E233E03183208325ED30E0358730
:101C3000248724ED30E03787268720ED30E0318B94
:101C4000208B21ED30E0338B228B22ED30E0358B81
:101C5000248B26ED30E0378B268B118E128E138E5F
:101C6000148EC3E1D6E028812E7F288328812D7F22
:101C7000288319861A861B861C861D821E821F8257
:101C8000188619821A821B821C8218A21F8E1AA221
:101C900019A21CA21BA21D8A1E8A1F8A188E898364
:101CA0009A83AB83BC8389819A81AB81BC818D830C
:101CB0009E83AF83B887CFDD69877A878B879C87C0
:101CC000CC24CA94DC2C7601CD86DE86EF86F88A99
:101CD000C98ADA8AEB8AFC8A89EC93E09A8F898F29
:101CE0001C8E1B8E1E8E1D8ECEEED5E088818E7FC3
:101CF000888388818D7F888319861A861B861C8637
:101D00001D821E821F82188619821A821B821C82E3
:101D100018A21F8E1AA219A21CA21BA21D8A1E8A1B
:101D20001F8A188E84EF91E0A0E0B0E089839A8347
:101D3000AB83BC8389819A81AB81BC818D839E8377
:101D4000AF83B88788DD69877A878B879C87CD8644
:101D5000DE86EF86F88AC98ADA8AEB8AFC8A8DE009
:101D600094E09A8F898F1C8E1B8E1E8E1D8EC9EC5F
:101D7000D5E088818E7F888388818D7F88831986CE
:101D80001A861B861C861D821E821F821886198257
:101D90001A821B821C8218A21F8E1AA219A21CA2D0
:101DA0001BA21D8A1E8A1F8A188E84E190E0A0E083
:101DB000B0E089839A83AB83BC8389819A81AB81AC
:101DC000BC818D839E83AF83B88745DD69877A8721
:101DD0008B879C87CD86DE86EF86F88AC98ADA8A69
:101DE000EB8AFC8A8CE794E09A8F898F1C8E1B8E7D
:101DF0001E8E1D8EE1ECF5E011821082138212829C
:101E000015821482178216821092C0051092BF05A7
:101E1000ECEAF5E0118612861386148680E090E0E5
:101E2000A0E8BFE381839283A383B48310821582E9
:101E3000168217821086DF91CF91FF90EF90DF908E
:101E4000CF900895EE0FFF1F881F8BBF0790F6916C
:101E5000E02D19945058BB27AA270ED048C139D17C
:101E600030F03ED120F031F49F3F11F41EF42EC12A
:101E70000EF4E095E7FB24C1E92F4AD180F3BA17AD
:101E8000620773078407950718F071F49EF562C125
:101E90000EF4E0950B2EBA2FA02D0B01B901900185
:101EA0000C01CA01A0011124FF27591B99F0593FC9
:101EB00050F4503E68F11A16F040A22F232F342F11
:101EC0004427585FF3CF469537952795A795F0405F
:101ED0005395C9F77EF41F16BA0B620B730B840B74
:101EE000BAF09150A1F0FF0FBB1F661F771F881F2C
:101EF000C2F70EC0BA0F621F731F841F48F4879584
:101F000077956795B795F7959E3F08F0B3CF939572
:101F1000880F08F09927EE0F9795879508950CD0B4
:101F2000E6C0DED040F0D5D030F021F45F3F19F0AC
:101F3000C7C0511110C1CAC0EBD098F39923C9F39F
:101F40005523B1F3951B550BBB27AA2762177307BF
:101F5000840738F09F5F5F4F220F331F441FAA1F73
:101F6000A9F333D00E2E3AF0E0E830D09150504033
:101F7000E695001CCAF729D0FE2F27D0660F771FE1
:101F8000881FBB1F261737074807AB07B0E809F0C3
:101F9000BB0B802DBF01FF2793585F4F2AF09E3F58
:101FA000510568F08DC0D7C05F3FECF3983EDCF37D
:101FB000869577956795B795F7959F5FC9F7880FD1
:101FC000911D9695879597F90895E1E0660F771F23
:101FD000881FBB1F621773078407BA0720F0621BB4
:101FE000730B840BBA0BEE1F88F7E095089598D019
:101FF00088F09F5790F0B92F9927B751A0F0D1F0F2
:10200000660F771F881F991F1AF0BA95C9F712C07B
:10201000B13081F09FD0B1E008959CC0672F782F38
:102020008827B85F39F0B93FCCF3869577956795E7
:10203000B395D9F73EF490958095709561957F4F53
:102040008F4F9F4F0895E89409C097FB3EF49095F9
:102050008095709561957F4F8F4F9F4F9923A9F081
:10206000F92F96E9BB279395F69587957795679510
:10207000B795F111F8CFFAF4BB0F11F460FF1BC054
:102080006F5F7F4F8F4F9F4F16C0882311F096E9E7
:1020900011C0772321F09EE8872F762F05C0662395
:1020A00071F096E8862F70E060E02AF09A95660F4E
:1020B000771F881FDAF7880F9695879597F9089507
:1020C00097F99F6780E870E060E008959FEF80ECEB
:1020D000089500240A94161617061806090608958E
:1020E00000240A9412161306140605060895092EF4
:1020F0000394000C11F4882352F0BB0F40F4BF2B63
:1021000011F460FF04C06F5F7F4F8F4F9F4F0895A2
:1021100057FD9058440F551F59F05F3F71F0479598
:10212000880F97FB991F61F09F3F79F0879508957D
:10213000121613061406551FF2CF4695F1DF08C09C
:10214000161617061806991FF1CF869571056105B9
:1021500008940895E894BB2766277727CB0197F961
:1021600008950EF0A6C0B2CF6894AACFD9DFC8F305
:102170009923D1F3C6F3DF93CF931F930F93FF926D
:10218000C92FDD2788232AF02197660F771F881F24
:10219000DAF720E030E040E85FEB9FE3883920F099
:1021A000803E30F021968F7756DEEEE1F1E003C0FD
:1021B00052DEEBE4F1E08BD08B01BE01EC01FB2E93
:1021C0006F5771097595771F880B990B3EDF28E1D2
:1021D00032E741E35FE316D0AF2D9801AE01FF90E7
:1021E0000F911F91CF91DF9147DE81CF0BD07FCF31
:1021F00070DF28F075DF18F0952309F061CF66CF06
:102200001124A9CF85DFA0F3959FD1F3950F50E05E
:10221000551F629FF001729FBB27F00DB11D639F98
:10222000AA27F00DB11DAA1F649F6627B00DA11D3E
:10223000661F829F2227B00DA11D621F739FB00DE4
:10224000A11D621F839FA00D611D221F749F332754
:10225000A00D611D231F849F600D211D822F762FED
:102260006A2F11249F5750408AF0E1F088234AF0EA
:10227000EE0FFF1FBB1F661F771F881F9150504036
:10228000A9F79E3F510570F01BCF65CF5F3FECF380
:10229000983EDCF3869577956795B795F795E79522
:1022A0009F5FC1F7FE2B880F911D9695879597F933
:1022B00008959F3F31F0915020F487957795679569
:1022C000B795880F911D9695879597F90895DF9397
:1022D000CF931F930F93FF92EF92DF927B018C01BC
:1022E000689405C0DA2EEF018DDFFE01E894A59118
:1022F0002591359145915591AEF3EF01BDDDFE017C
:102300009701A801DA9479F7DF90EF90FF900F9191
:102310001F91CF91DF91089581E090E0F89428C05B
:10232000FB01DC0102C001900D9241505040D8F7F2
:102330000895FB01DC018D91019080190110D9F302
:10234000990B0895F999FECF92BD81BDF89A99270E
:1023500080B50895262FF999FECF1FBA92BD81BD91
:1023600020BD0FB6F894FA9AF99A0FBE0196089517
:04237000F894FFCF0F
:1023740072017201720172017201720172017201C1
:1023840001000100327C8900EDD968770000005912
:102394000000000000000000D69FDCA81817AA90D7
:1023A400437327F6B968EDF4DED409FEE61C1C84F9
:1023B400DDE80B9929274EC400000F03000000003C
:1023C4000099B7333B76941500F37C000026149EE5
:1023D400988F0000006A31168F8C059600E7B73F8E
:1023E4003600000000000000AF669ED0385D8A6CA5
:1023F40020B95422AE7CED044C80387486EDCBFABF
:1024040057CBDC19E22E1DDF5506E5CB01C36DA8C1
:10241400B52F48837F00679AB2C886DBD0BC5416B8
:10242400131586004E44BD7F9A15159001EA49B5EF
:102434001653A78AEAF02FBD34AEE5559FBA48007B
:102444000000005C244762000000000086CD00000C
:1024540000000000000000000000456532CA11A21F
:102464000E0000000000CF000000A36997230000C5
:1024740000000000005A68555F82B85108CC31AAA8
:102484002C532E00780380038A039303000000007A
:10249400F6017301C0019E01B2013C02474F545F33
:1024A400534F4D455F504152414D00504152414DB3
:1024B4005F534156454400474F545F504152414D8C
:1024C4005F4C4953545F52455100474F545F50414C
:1024D40052414D5F56414C5F524551004D43206976
:1024E40073205245414459004442475F54585400B4
:1024F400464C5F414D4F554E5400464C5F46464155
:0E25040043540054454C454D5F554152540020
:00000001FF
